{
  "_format": "hh-sol-artifact-1",
  "contractName": "Voting",
  "sourceName": "contracts/Voting.sol",
  "abi": [
    {
      "inputs": [],
      "stateMutability": "nonpayable",
      "type": "constructor"
    },
    {
      "anonymous": false,
      "inputs": [
        {
          "indexed": true,
          "internalType": "address",
          "name": "voter",
          "type": "address"
        },
        {
          "indexed": true,
          "internalType": "address",
          "name": "election",
          "type": "address"
        },
        {
          "indexed": false,
          "internalType": "uint256",
          "name": "timestamp",
          "type": "uint256"
        }
      ],
      "name": "Voted",
      "type": "event"
    },
    {
      "inputs": [],
      "name": "MAX_TIMESTAMP",
      "outputs": [
        {
          "internalType": "uint256",
          "name": "",
          "type": "uint256"
        }
      ],
      "stateMutability": "view",
      "type": "function"
    },
    {
      "inputs": [
        {
          "internalType": "uint256",
          "name": "_electionId",
          "type": "uint256"
        },
        {
          "internalType": "string",
          "name": "_name",
          "type": "string"
        },
        {
          "internalType": "address",
          "name": "_delegate",
          "type": "address"
        }
      ],
      "name": "addCandidate",
      "outputs": [],
      "stateMutability": "nonpayable",
      "type": "function"
    },
    {
      "inputs": [
        {
          "internalType": "uint256",
          "name": "_electionId",
          "type": "uint256"
        },
        {
          "internalType": "string",
          "name": "_name",
          "type": "string"
        },
        {
          "internalType": "string",
          "name": "_desc",
          "type": "string"
        }
      ],
      "name": "addDistrict",
      "outputs": [],
      "stateMutability": "nonpayable",
      "type": "function"
    },
    {
      "inputs": [
        {
          "internalType": "uint256",
          "name": "_electionId",
          "type": "uint256"
        },
        {
          "internalType": "string",
          "name": "_name",
          "type": "string"
        },
        {
          "internalType": "string",
          "name": "_password",
          "type": "string"
        },
        {
          "internalType": "address",
          "name": "_delegate",
          "type": "address"
        }
      ],
      "name": "addVoter",
      "outputs": [],
      "stateMutability": "nonpayable",
      "type": "function"
    },
    {
      "inputs": [
        {
          "internalType": "uint256",
          "name": "_electionId",
          "type": "uint256"
        },
        {
          "internalType": "uint256",
          "name": "_candidateId",
          "type": "uint256"
        }
      ],
      "name": "castVote",
      "outputs": [],
      "stateMutability": "nonpayable",
      "type": "function"
    },
    {
      "inputs": [
        {
          "internalType": "string",
          "name": "_name",
          "type": "string"
        },
        {
          "internalType": "string",
          "name": "_description",
          "type": "string"
        },
        {
          "internalType": "uint256[]",
          "name": "_districtIds",
          "type": "uint256[]"
        }
      ],
      "name": "createElection",
      "outputs": [],
      "stateMutability": "nonpayable",
      "type": "function"
    },
    {
      "inputs": [
        {
          "internalType": "string",
          "name": "_name",
          "type": "string"
        },
        {
          "internalType": "string",
          "name": "_description",
          "type": "string"
        },
        {
          "internalType": "uint256",
          "name": "_startedAt",
          "type": "uint256"
        },
        {
          "internalType": "uint256",
          "name": "_endedAt",
          "type": "uint256"
        },
        {
          "internalType": "uint256[]",
          "name": "_districtIds",
          "type": "uint256[]"
        }
      ],
      "name": "createElection",
      "outputs": [],
      "stateMutability": "nonpayable",
      "type": "function"
    },
    {
      "inputs": [],
      "name": "electionsCount",
      "outputs": [
        {
          "internalType": "uint256",
          "name": "",
          "type": "uint256"
        }
      ],
      "stateMutability": "view",
      "type": "function"
    },
    {
      "inputs": [
        {
          "internalType": "uint256",
          "name": "_electionId",
          "type": "uint256"
        },
        {
          "internalType": "string",
          "name": "_desc",
          "type": "string"
        }
      ],
      "name": "endElection",
      "outputs": [],
      "stateMutability": "nonpayable",
      "type": "function"
    },
    {
      "inputs": [],
      "name": "endElections",
      "outputs": [],
      "stateMutability": "nonpayable",
      "type": "function"
    },
    {
      "inputs": [
        {
          "internalType": "uint256",
          "name": "_electionId",
          "type": "uint256"
        },
        {
          "internalType": "uint256",
          "name": "time",
          "type": "uint256"
        }
      ],
      "name": "extendElectionPeriod",
      "outputs": [],
      "stateMutability": "nonpayable",
      "type": "function"
    },
    {
      "inputs": [
        {
          "internalType": "address",
          "name": "_delegate",
          "type": "address"
        }
      ],
      "name": "getCandidateElections",
      "outputs": [
        {
          "components": [
            {
              "internalType": "uint256",
              "name": "id",
              "type": "uint256"
            },
            {
              "internalType": "string",
              "name": "name",
              "type": "string"
            },
            {
              "internalType": "string",
              "name": "description",
              "type": "string"
            },
            {
              "internalType": "address",
              "name": "admin",
              "type": "address"
            },
            {
              "internalType": "address",
              "name": "ballotAddress",
              "type": "address"
            },
            {
              "internalType": "uint256",
              "name": "startedAt",
              "type": "uint256"
            },
            {
              "internalType": "uint256",
              "name": "endedAt",
              "type": "uint256"
            },
            {
              "internalType": "bool",
              "name": "isStarted",
              "type": "bool"
            },
            {
              "internalType": "uint256[]",
              "name": "districtIds",
              "type": "uint256[]"
            },
            {
              "internalType": "uint256",
              "name": "createdAt",
              "type": "uint256"
            },
            {
              "internalType": "uint256",
              "name": "updatedAt",
              "type": "uint256"
            }
          ],
          "internalType": "struct Voting.Election[]",
          "name": "",
          "type": "tuple[]"
        }
      ],
      "stateMutability": "view",
      "type": "function"
    },
    {
      "inputs": [
        {
          "internalType": "uint256",
          "name": "_districtId",
          "type": "uint256"
        }
      ],
      "name": "getDistrictElections",
      "outputs": [
        {
          "components": [
            {
              "internalType": "uint256",
              "name": "id",
              "type": "uint256"
            },
            {
              "internalType": "string",
              "name": "name",
              "type": "string"
            },
            {
              "internalType": "string",
              "name": "description",
              "type": "string"
            },
            {
              "internalType": "address",
              "name": "admin",
              "type": "address"
            },
            {
              "internalType": "address",
              "name": "ballotAddress",
              "type": "address"
            },
            {
              "internalType": "uint256",
              "name": "startedAt",
              "type": "uint256"
            },
            {
              "internalType": "uint256",
              "name": "endedAt",
              "type": "uint256"
            },
            {
              "internalType": "bool",
              "name": "isStarted",
              "type": "bool"
            },
            {
              "internalType": "uint256[]",
              "name": "districtIds",
              "type": "uint256[]"
            },
            {
              "internalType": "uint256",
              "name": "createdAt",
              "type": "uint256"
            },
            {
              "internalType": "uint256",
              "name": "updatedAt",
              "type": "uint256"
            }
          ],
          "internalType": "struct Voting.Election[]",
          "name": "",
          "type": "tuple[]"
        }
      ],
      "stateMutability": "view",
      "type": "function"
    },
    {
      "inputs": [
        {
          "internalType": "uint256",
          "name": "_electionId",
          "type": "uint256"
        }
      ],
      "name": "getElection",
      "outputs": [
        {
          "components": [
            {
              "internalType": "uint256",
              "name": "id",
              "type": "uint256"
            },
            {
              "internalType": "string",
              "name": "name",
              "type": "string"
            },
            {
              "internalType": "string",
              "name": "description",
              "type": "string"
            },
            {
              "internalType": "address",
              "name": "admin",
              "type": "address"
            },
            {
              "internalType": "address",
              "name": "ballotAddress",
              "type": "address"
            },
            {
              "internalType": "uint256",
              "name": "startedAt",
              "type": "uint256"
            },
            {
              "internalType": "uint256",
              "name": "endedAt",
              "type": "uint256"
            },
            {
              "internalType": "bool",
              "name": "isStarted",
              "type": "bool"
            },
            {
              "internalType": "uint256[]",
              "name": "districtIds",
              "type": "uint256[]"
            },
            {
              "internalType": "uint256",
              "name": "createdAt",
              "type": "uint256"
            },
            {
              "internalType": "uint256",
              "name": "updatedAt",
              "type": "uint256"
            }
          ],
          "internalType": "struct Voting.Election",
          "name": "",
          "type": "tuple"
        }
      ],
      "stateMutability": "view",
      "type": "function"
    },
    {
      "inputs": [
        {
          "internalType": "uint256",
          "name": "_electionId",
          "type": "uint256"
        },
        {
          "internalType": "uint256",
          "name": "_candidateId",
          "type": "uint256"
        }
      ],
      "name": "getElectionCandidate",
      "outputs": [
        {
          "components": [
            {
              "internalType": "uint256",
              "name": "id",
              "type": "uint256"
            },
            {
              "internalType": "string",
              "name": "name",
              "type": "string"
            },
            {
              "internalType": "address",
              "name": "delegate",
              "type": "address"
            },
            {
              "internalType": "uint256",
              "name": "votes",
              "type": "uint256"
            },
            {
              "internalType": "uint256",
              "name": "createdAt",
              "type": "uint256"
            },
            {
              "internalType": "uint256",
              "name": "updatedAt",
              "type": "uint256"
            }
          ],
          "internalType": "struct Voting.Candidate",
          "name": "",
          "type": "tuple"
        }
      ],
      "stateMutability": "view",
      "type": "function"
    },
    {
      "inputs": [
        {
          "internalType": "uint256",
          "name": "_electionId",
          "type": "uint256"
        }
      ],
      "name": "getElectionCandidatesCount",
      "outputs": [
        {
          "internalType": "uint256",
          "name": "",
          "type": "uint256"
        }
      ],
      "stateMutability": "view",
      "type": "function"
    },
    {
      "inputs": [
        {
          "internalType": "uint256",
          "name": "_electionId",
          "type": "uint256"
        },
        {
          "internalType": "uint256",
          "name": "_districtId",
          "type": "uint256"
        }
      ],
      "name": "getElectionDistrict",
      "outputs": [
        {
          "components": [
            {
              "internalType": "uint256",
              "name": "id",
              "type": "uint256"
            },
            {
              "internalType": "string",
              "name": "name",
              "type": "string"
            },
            {
              "internalType": "string",
              "name": "description",
              "type": "string"
            },
            {
              "internalType": "uint256",
              "name": "createdAt",
              "type": "uint256"
            },
            {
              "internalType": "uint256",
              "name": "updatedAt",
              "type": "uint256"
            }
          ],
          "internalType": "struct Voting.District",
          "name": "",
          "type": "tuple"
        }
      ],
      "stateMutability": "view",
      "type": "function"
    },
    {
      "inputs": [
        {
          "internalType": "uint256",
          "name": "_electionId",
          "type": "uint256"
        }
      ],
      "name": "getElectionDistrictsCount",
      "outputs": [
        {
          "internalType": "uint256",
          "name": "",
          "type": "uint256"
        }
      ],
      "stateMutability": "view",
      "type": "function"
    },
    {
      "inputs": [
        {
          "internalType": "uint256",
          "name": "_electionId",
          "type": "uint256"
        }
      ],
      "name": "getElectionPeriod",
      "outputs": [
        {
          "internalType": "uint256",
          "name": "startPeriod",
          "type": "uint256"
        },
        {
          "internalType": "uint256",
          "name": "endPeriod",
          "type": "uint256"
        }
      ],
      "stateMutability": "view",
      "type": "function"
    },
    {
      "inputs": [
        {
          "internalType": "uint256",
          "name": "_electionId",
          "type": "uint256"
        },
        {
          "internalType": "uint256",
          "name": "_voterId",
          "type": "uint256"
        }
      ],
      "name": "getElectionVoter",
      "outputs": [
        {
          "components": [
            {
              "internalType": "uint256",
              "name": "id",
              "type": "uint256"
            },
            {
              "internalType": "string",
              "name": "name",
              "type": "string"
            },
            {
              "internalType": "address",
              "name": "delegate",
              "type": "address"
            },
            {
              "internalType": "bytes32",
              "name": "passwordHash",
              "type": "bytes32"
            },
            {
              "internalType": "uint256",
              "name": "districtId",
              "type": "uint256"
            },
            {
              "internalType": "uint256",
              "name": "createdAt",
              "type": "uint256"
            },
            {
              "internalType": "uint256",
              "name": "updatedAt",
              "type": "uint256"
            }
          ],
          "internalType": "struct Voting.Voter",
          "name": "",
          "type": "tuple"
        }
      ],
      "stateMutability": "view",
      "type": "function"
    },
    {
      "inputs": [
        {
          "internalType": "uint256",
          "name": "_electionId",
          "type": "uint256"
        }
      ],
      "name": "getElectionVotersCount",
      "outputs": [
        {
          "internalType": "uint256",
          "name": "",
          "type": "uint256"
        }
      ],
      "stateMutability": "view",
      "type": "function"
    },
    {
      "inputs": [],
      "name": "getElectionsCount",
      "outputs": [
        {
          "internalType": "uint256",
          "name": "",
          "type": "uint256"
        }
      ],
      "stateMutability": "view",
      "type": "function"
    },
    {
      "inputs": [],
      "name": "getElectionsWithResults",
      "outputs": [
        {
          "components": [
            {
              "components": [
                {
                  "internalType": "uint256",
                  "name": "id",
                  "type": "uint256"
                },
                {
                  "internalType": "string",
                  "name": "name",
                  "type": "string"
                },
                {
                  "internalType": "string",
                  "name": "description",
                  "type": "string"
                },
                {
                  "internalType": "address",
                  "name": "admin",
                  "type": "address"
                },
                {
                  "internalType": "address",
                  "name": "ballotAddress",
                  "type": "address"
                },
                {
                  "internalType": "uint256",
                  "name": "startedAt",
                  "type": "uint256"
                },
                {
                  "internalType": "uint256",
                  "name": "endedAt",
                  "type": "uint256"
                },
                {
                  "internalType": "bool",
                  "name": "isStarted",
                  "type": "bool"
                },
                {
                  "internalType": "uint256[]",
                  "name": "districtIds",
                  "type": "uint256[]"
                },
                {
                  "internalType": "uint256",
                  "name": "createdAt",
                  "type": "uint256"
                },
                {
                  "internalType": "uint256",
                  "name": "updatedAt",
                  "type": "uint256"
                }
              ],
              "internalType": "struct Voting.Election",
              "name": "election",
              "type": "tuple"
            },
            {
              "components": [
                {
                  "internalType": "uint256",
                  "name": "id",
                  "type": "uint256"
                },
                {
                  "internalType": "string",
                  "name": "name",
                  "type": "string"
                },
                {
                  "internalType": "address",
                  "name": "delegate",
                  "type": "address"
                },
                {
                  "internalType": "uint256",
                  "name": "votes",
                  "type": "uint256"
                },
                {
                  "internalType": "uint256",
                  "name": "createdAt",
                  "type": "uint256"
                },
                {
                  "internalType": "uint256",
                  "name": "updatedAt",
                  "type": "uint256"
                }
              ],
              "internalType": "struct Voting.Candidate[]",
              "name": "candidates",
              "type": "tuple[]"
            }
          ],
          "internalType": "struct Voting.ElectionResults[]",
          "name": "",
          "type": "tuple[]"
        }
      ],
      "stateMutability": "view",
      "type": "function"
    },
    {
      "inputs": [],
      "name": "getMaxTimestamp",
      "outputs": [
        {
          "internalType": "uint256",
          "name": "",
          "type": "uint256"
        }
      ],
      "stateMutability": "pure",
      "type": "function"
    },
    {
      "inputs": [],
      "name": "getStartedElections",
      "outputs": [
        {
          "components": [
            {
              "internalType": "uint256",
              "name": "id",
              "type": "uint256"
            },
            {
              "internalType": "string",
              "name": "name",
              "type": "string"
            },
            {
              "internalType": "string",
              "name": "description",
              "type": "string"
            },
            {
              "internalType": "address",
              "name": "admin",
              "type": "address"
            },
            {
              "internalType": "address",
              "name": "ballotAddress",
              "type": "address"
            },
            {
              "internalType": "uint256",
              "name": "startedAt",
              "type": "uint256"
            },
            {
              "internalType": "uint256",
              "name": "endedAt",
              "type": "uint256"
            },
            {
              "internalType": "bool",
              "name": "isStarted",
              "type": "bool"
            },
            {
              "internalType": "uint256[]",
              "name": "districtIds",
              "type": "uint256[]"
            },
            {
              "internalType": "uint256",
              "name": "createdAt",
              "type": "uint256"
            },
            {
              "internalType": "uint256",
              "name": "updatedAt",
              "type": "uint256"
            }
          ],
          "internalType": "struct Voting.Election[]",
          "name": "",
          "type": "tuple[]"
        }
      ],
      "stateMutability": "view",
      "type": "function"
    },
    {
      "inputs": [
        {
          "internalType": "address",
          "name": "_voterAddress",
          "type": "address"
        }
      ],
      "name": "getVoterElections",
      "outputs": [
        {
          "components": [
            {
              "internalType": "uint256",
              "name": "id",
              "type": "uint256"
            },
            {
              "internalType": "string",
              "name": "name",
              "type": "string"
            },
            {
              "internalType": "string",
              "name": "description",
              "type": "string"
            },
            {
              "internalType": "address",
              "name": "admin",
              "type": "address"
            },
            {
              "internalType": "address",
              "name": "ballotAddress",
              "type": "address"
            },
            {
              "internalType": "uint256",
              "name": "startedAt",
              "type": "uint256"
            },
            {
              "internalType": "uint256",
              "name": "endedAt",
              "type": "uint256"
            },
            {
              "internalType": "bool",
              "name": "isStarted",
              "type": "bool"
            },
            {
              "internalType": "uint256[]",
              "name": "districtIds",
              "type": "uint256[]"
            },
            {
              "internalType": "uint256",
              "name": "createdAt",
              "type": "uint256"
            },
            {
              "internalType": "uint256",
              "name": "updatedAt",
              "type": "uint256"
            }
          ],
          "internalType": "struct Voting.Election[]",
          "name": "",
          "type": "tuple[]"
        }
      ],
      "stateMutability": "view",
      "type": "function"
    },
    {
      "inputs": [
        {
          "internalType": "uint256",
          "name": "_electionId",
          "type": "uint256"
        }
      ],
      "name": "hasElectionEnded",
      "outputs": [
        {
          "internalType": "bool",
          "name": "",
          "type": "bool"
        }
      ],
      "stateMutability": "view",
      "type": "function"
    },
    {
      "inputs": [
        {
          "internalType": "uint256",
          "name": "_electionId",
          "type": "uint256"
        }
      ],
      "name": "hasElectionStarted",
      "outputs": [
        {
          "internalType": "bool",
          "name": "",
          "type": "bool"
        }
      ],
      "stateMutability": "view",
      "type": "function"
    },
    {
      "inputs": [
        {
          "internalType": "uint256",
          "name": "_electionId",
          "type": "uint256"
        },
        {
          "internalType": "address",
          "name": "_voterAddress",
          "type": "address"
        }
      ],
      "name": "hasVotedInElection",
      "outputs": [
        {
          "internalType": "bool",
          "name": "",
          "type": "bool"
        }
      ],
      "stateMutability": "view",
      "type": "function"
    },
    {
      "inputs": [
        {
          "internalType": "uint256",
          "name": "_electionId",
          "type": "uint256"
        },
        {
          "internalType": "uint256",
          "name": "_candidateId",
          "type": "uint256"
        }
      ],
      "name": "removeCandidateElection",
      "outputs": [],
      "stateMutability": "nonpayable",
      "type": "function"
    },
    {
      "inputs": [
        {
          "internalType": "uint256",
          "name": "_electionId",
          "type": "uint256"
        },
        {
          "internalType": "uint256",
          "name": "_startPeriod",
          "type": "uint256"
        },
        {
          "internalType": "uint256",
          "name": "_endPeriod",
          "type": "uint256"
        }
      ],
      "name": "setElectionPeriod",
      "outputs": [],
      "stateMutability": "nonpayable",
      "type": "function"
    },
    {
      "inputs": [
        {
          "internalType": "uint256",
          "name": "_electionId",
          "type": "uint256"
        }
      ],
      "name": "startElection",
      "outputs": [],
      "stateMutability": "nonpayable",
      "type": "function"
    },
    {
      "inputs": [
        {
          "internalType": "uint256",
          "name": "_electionId",
          "type": "uint256"
        },
        {
          "internalType": "uint256",
          "name": "_candidateId",
          "type": "uint256"
        },
        {
          "internalType": "string",
          "name": "_name",
          "type": "string"
        }
      ],
      "name": "updateCandidate",
      "outputs": [],
      "stateMutability": "nonpayable",
      "type": "function"
    },
    {
      "inputs": [
        {
          "internalType": "uint256",
          "name": "_electionId",
          "type": "uint256"
        },
        {
          "internalType": "uint256",
          "name": "_voterId",
          "type": "uint256"
        },
        {
          "internalType": "string",
          "name": "_name",
          "type": "string"
        },
        {
          "internalType": "string",
          "name": "_password",
          "type": "string"
        },
        {
          "internalType": "uint256",
          "name": "_districtId",
          "type": "uint256"
        }
      ],
      "name": "updateVoter",
      "outputs": [],
      "stateMutability": "nonpayable",
      "type": "function"
    },
    {
      "inputs": [
        {
          "internalType": "uint256",
          "name": "_electionId",
          "type": "uint256"
        },
        {
          "internalType": "uint256",
          "name": "_candidateId",
          "type": "uint256"
        }
      ],
      "name": "withdrawFromElection",
      "outputs": [],
      "stateMutability": "nonpayable",
      "type": "function"
    }
  ],
  "bytecode": "0x608060405234801561001057600080fd5b50600080819055506168be80620000286000396000f3fe608060405234801561001057600080fd5b50600436106102115760003560e01c80638405cb6b11610125578063bd514d0e116100ad578063ef078a0e1161007c578063ef078a0e14610649578063ef1b5b7714610665578063f0e4043514610695578063f70171fb146106b1578063f8c6295b146106e157610211565b8063bd514d0e146105af578063c9f0e4ee146105cd578063cadc68e9146105fd578063e0fef49e1461062d57610211565b8063a9487cec116100f4578063a9487cec146104f7578063aecc654614610527578063b1bb6ec314610543578063b254ccbe14610561578063ba2324281461059157610211565b80638405cb6b1461045b578063843fe3071461048b5780639a74c695146104a95780639d710777146104c757610211565b806341403d30116101a85780635bc261fa116101775780635bc261fa146103935780636d32dc4b146103c35780636dd278a7146103df578063739338711461040f5780637f4cdbba1461042b57610211565b806341403d301461032057806342511a1e1461033c578063567f2e8e1461036d5780635905491c1461038957610211565b80632c0a3f89116101e45780632c0a3f89146102ae5780632c4d2711146102ca57806337e02abd146102e65780633bb76ef61461030457610211565b80631b3760a5146102165780631f97f2dd14610232578063275a07381461024e5780632a0b5fef1461027e575b600080fd5b610230600480360381019061022b9190614a10565b6106fd565b005b61024c60048036038101906102479190614ac3565b610922565b005b61026860048036038101906102639190614b4e565b610aeb565b6040516102759190614d12565b60405180910390f35b61029860048036038101906102939190614d34565b610cdd565b6040516102a59190614d70565b60405180910390f35b6102c860048036038101906102c39190614b4e565b610d3d565b005b6102e460048036038101906102df9190614e53565b61114f565b005b6102ee611332565b6040516102fb9190615183565b60405180910390f35b61031e600480360381019061031991906151a5565b6116ad565b005b61033a60048036038101906103359190615240565b61189b565b005b61035660048036038101906103519190614d34565b611b05565b6040516103649291906152af565b60405180910390f35b61038760048036038101906103829190614b4e565b611b83565b005b610391611dd7565b005b6103ad60048036038101906103a891906152d8565b611e6f565b6040516103ba9190615327565b60405180910390f35b6103dd60048036038101906103d89190614d34565b611f1a565b005b6103f960048036038101906103f49190614d34565b61210c565b6040516104069190614d70565b60405180910390f35b61042960048036038101906104249190615342565b61216c565b005b61044560048036038101906104409190614d34565b6123c4565b6040516104529190615327565b60405180910390f35b610475600480360381019061047091906153e1565b612434565b6040516104829190615183565b60405180910390f35b610493612820565b6040516104a09190614d70565b60405180910390f35b6104b1612829565b6040516104be9190614d70565b60405180910390f35b6104e160048036038101906104dc9190614d34565b61282f565b6040516104ee919061550b565b60405180910390f35b610511600480360381019061050c91906153e1565b612b16565b60405161051e9190615183565b60405180910390f35b610541600480360381019061053c919061552d565b612f02565b005b61054b61310c565b6040516105589190614d70565b60405180910390f35b61057b60048036038101906105769190614b4e565b613115565b6040516105889190615606565b60405180910390f35b61059961332f565b6040516105a69190614d70565b60405180910390f35b6105b761333c565b6040516105c49190615879565b60405180910390f35b6105e760048036038101906105e29190614d34565b6138be565b6040516105f49190614d70565b60405180910390f35b61061760048036038101906106129190614d34565b61391e565b6040516106249190615327565b60405180910390f35b6106476004803603810190610642919061589b565b613984565b005b610663600480360381019061065e9190614b4e565b613b63565b005b61067f600480360381019061067a9190614d34565b613ce1565b60405161068c9190615183565b60405180910390f35b6106af60048036038101906106aa9190614b4e565b614092565b005b6106cb60048036038101906106c69190614b4e565b6142c5565b6040516106d891906159f3565b60405180910390f35b6106fb60048036038101906106f69190615a15565b6144ad565b005b846001600082815260200190815260200160002060030160009054906101000a900473ffffffffffffffffffffffffffffffffffffffff1673ffffffffffffffffffffffffffffffffffffffff163373ffffffffffffffffffffffffffffffffffffffff16146107a2576040517f08c379a000000000000000000000000000000000000000000000000000000000815260040161079990615aeb565b60405180910390fd5b60005486106107e6576040517f08c379a00000000000000000000000000000000000000000000000000000000081526004016107dd90615b57565b60405180910390fd5b6005600087815260200190815260200160002054851061083b576040517f08c379a000000000000000000000000000000000000000000000000000000000815260040161083290615bc3565b60405180910390fd5b83600460008881526020019081526020016000206000878152602001908152602001600020600101908161086f9190615def565b50826040516020016108819190615efd565b604051602081830303815290604052805190602001206004600088815260200190815260200160002060008781526020019081526020016000206003018190555081600460008881526020019081526020016000206000878152602001908152602001600020600401819055504260046000888152602001908152602001600020600087815260200190815260200160002060060181905550505050505050565b826001600082815260200190815260200160002060030160009054906101000a900473ffffffffffffffffffffffffffffffffffffffff1673ffffffffffffffffffffffffffffffffffffffff163373ffffffffffffffffffffffffffffffffffffffff16146109c7576040517f08c379a00000000000000000000000000000000000000000000000000000000081526004016109be90615aeb565b60405180910390fd5b6000548410610a0b576040517f08c379a0000000000000000000000000000000000000000000000000000000008152600401610a0290615b57565b60405180910390fd5b600060076000868152602001908152602001600020549050600760008681526020019081526020016000206000815480929190610a4790615f43565b91905055506040518060a0016040528082815260200185815260200184815260200142815260200142815250600660008781526020019081526020016000206000838152602001908152602001600020600082015181600001556020820151816001019081610ab69190615def565b506040820151816002019081610acc9190615def565b5060608201518160030155608082015181600401559050505050505050565b610af361465d565b6000548310610b37576040517f08c379a0000000000000000000000000000000000000000000000000000000008152600401610b2e90615b57565b60405180910390fd5b60056000848152602001908152602001600020548210610b8c576040517f08c379a0000000000000000000000000000000000000000000000000000000008152600401610b8390615bc3565b60405180910390fd5b6004600084815260200190815260200160002060008381526020019081526020016000206040518060e001604052908160008201548152602001600182018054610bd590615c12565b80601f0160208091040260200160405190810160405280929190818152602001828054610c0190615c12565b8015610c4e5780601f10610c2357610100808354040283529160200191610c4e565b820191906000526020600020905b815481529060010190602001808311610c3157829003601f168201915b505050505081526020016002820160009054906101000a900473ffffffffffffffffffffffffffffffffffffffff1673ffffffffffffffffffffffffffffffffffffffff1673ffffffffffffffffffffffffffffffffffffffff168152602001600382015481526020016004820154815260200160058201548152602001600682015481525050905092915050565b600080548210610d22576040517f08c379a0000000000000000000000000000000000000000000000000000000008152600401610d1990615b57565b60405180910390fd5b60076000838152602001908152602001600020549050919050565b6000548210610d81576040517f08c379a0000000000000000000000000000000000000000000000000000000008152600401610d7890615b57565b60405180910390fd5b610d8a826123c4565b610dc9576040517f08c379a0000000000000000000000000000000000000000000000000000000008152600401610dc090615fd7565b60405180910390fd5b610dd28261391e565b15610e12576040517f08c379a0000000000000000000000000000000000000000000000000000000008152600401610e0990616043565b60405180910390fd5b600260008381526020019081526020016000206000828152602001908152602001600020600001548114610e7b576040517f08c379a0000000000000000000000000000000000000000000000000000000008152600401610e72906160af565b60405180910390fd5b6009600083815260200190815260200160002060003373ffffffffffffffffffffffffffffffffffffffff1673ffffffffffffffffffffffffffffffffffffffff16815260200190815260200160002060009054906101000a900460ff1615610f19576040517f08c379a0000000000000000000000000000000000000000000000000000000008152600401610f109061611b565b60405180910390fd5b6000805b6005600085815260200190815260200160002054811015610fc8573373ffffffffffffffffffffffffffffffffffffffff1660046000868152602001908152602001600020600083815260200190815260200160002060020160009054906101000a900473ffffffffffffffffffffffffffffffffffffffff1673ffffffffffffffffffffffffffffffffffffffff1603610fbb5760019150610fc8565b8080600101915050610f1d565b5080611009576040517f08c379a0000000000000000000000000000000000000000000000000000000008152600401611000906161ad565b60405180910390fd5b600260008481526020019081526020016000206000838152602001908152602001600020600301600081548092919061104190615f43565b919050555060016009600085815260200190815260200160002060003373ffffffffffffffffffffffffffffffffffffffff1673ffffffffffffffffffffffffffffffffffffffff16815260200190815260200160002060006101000a81548160ff0219169083151502179055506001600084815260200190815260200160002060040160009054906101000a900473ffffffffffffffffffffffffffffffffffffffff1673ffffffffffffffffffffffffffffffffffffffff163373ffffffffffffffffffffffffffffffffffffffff167f174ba19ba3c8bb5c679c87e51db79fff7c3f04bb84c1fd55b7dacb470b674aa6426040516111429190614d70565b60405180910390a3505050565b60405180610160016040528060005481526020018481526020018381526020013373ffffffffffffffffffffffffffffffffffffffff168152602001600073ffffffffffffffffffffffffffffffffffffffff168152602001600081526020016402540be3ff81526020016000151581526020018281526020014281526020014281525060016000805481526020019081526020016000206000820151816000015560208201518160010190816112069190615def565b50604082015181600201908161121c9190615def565b5060608201518160030160006101000a81548173ffffffffffffffffffffffffffffffffffffffff021916908373ffffffffffffffffffffffffffffffffffffffff16021790555060808201518160040160006101000a81548173ffffffffffffffffffffffffffffffffffffffff021916908373ffffffffffffffffffffffffffffffffffffffff16021790555060a0820151816005015560c0820151816006015560e08201518160070160006101000a81548160ff0219169083151502179055506101008201518160080190805190602001906112fc9291906146b3565b50610120820151816009015561014082015181600a015590505060008081548092919061132890615f43565b9190505550505050565b60606000805467ffffffffffffffff811115611351576113506148e5565b5b60405190808252806020026020018201604052801561138a57816020015b611377614700565b81526020019060019003908161136f5790505b5090506000805b6000548110156116a4576001600082815260200190815260200160002060070160009054906101000a900460ff1680156113d157506113cf8161391e565b155b156116975760016000828152602001908152602001600020604051806101600160405290816000820154815260200160018201805461140f90615c12565b80601f016020809104026020016040519081016040528092919081815260200182805461143b90615c12565b80156114885780601f1061145d57610100808354040283529160200191611488565b820191906000526020600020905b81548152906001019060200180831161146b57829003601f168201915b505050505081526020016002820180546114a190615c12565b80601f01602080910402602001604051908101604052809291908181526020018280546114cd90615c12565b801561151a5780601f106114ef5761010080835404028352916020019161151a565b820191906000526020600020905b8154815290600101906020018083116114fd57829003601f168201915b505050505081526020016003820160009054906101000a900473ffffffffffffffffffffffffffffffffffffffff1673ffffffffffffffffffffffffffffffffffffffff1673ffffffffffffffffffffffffffffffffffffffff1681526020016004820160009054906101000a900473ffffffffffffffffffffffffffffffffffffffff1673ffffffffffffffffffffffffffffffffffffffff1673ffffffffffffffffffffffffffffffffffffffff16815260200160058201548152602001600682015481526020016007820160009054906101000a900460ff161515151581526020016008820180548060200260200160405190810160405280929190818152602001828054801561164d57602002820191906000526020600020905b815481526020019060010190808311611639575b5050505050815260200160098201548152602001600a8201548152505083838151811061167d5761167c6161cd565b5b6020026020010181905250818061169390615f43565b9250505b8080600101915050611391565b50819250505090565b826001600082815260200190815260200160002060030160009054906101000a900473ffffffffffffffffffffffffffffffffffffffff1673ffffffffffffffffffffffffffffffffffffffff163373ffffffffffffffffffffffffffffffffffffffff1614611752576040517f08c379a000000000000000000000000000000000000000000000000000000000815260040161174990615aeb565b60405180910390fd5b6000548410611796576040517f08c379a000000000000000000000000000000000000000000000000000000000815260040161178d90615b57565b60405180910390fd5b61179f846123c4565b156117df576040517f08c379a00000000000000000000000000000000000000000000000000000000081526004016117d69061626e565b60405180910390fd5b60036000858152602001908152602001600020548310611834576040517f08c379a000000000000000000000000000000000000000000000000000000000815260040161182b906160af565b60405180910390fd5b8160026000868152602001908152602001600020600085815260200190815260200160002060010190816118689190615def565b50426002600086815260200190815260200160002060008581526020019081526020016000206005018190555050505050565b826001600082815260200190815260200160002060030160009054906101000a900473ffffffffffffffffffffffffffffffffffffffff1673ffffffffffffffffffffffffffffffffffffffff163373ffffffffffffffffffffffffffffffffffffffff1614611940576040517f08c379a000000000000000000000000000000000000000000000000000000000815260040161193790615aeb565b60405180910390fd5b6000548410611984576040517f08c379a000000000000000000000000000000000000000000000000000000000815260040161197b90615b57565b60405180910390fd5b61198d846123c4565b156119cd576040517f08c379a00000000000000000000000000000000000000000000000000000000081526004016119c4906162da565b60405180910390fd5b6000600360008681526020019081526020016000205490506040518060c001604052808281526020018581526020018473ffffffffffffffffffffffffffffffffffffffff1681526020016000815260200142815260200142815250600260008781526020019081526020016000206000838152602001908152602001600020600082015181600001556020820151816001019081611a6c9190615def565b5060408201518160020160006101000a81548173ffffffffffffffffffffffffffffffffffffffff021916908373ffffffffffffffffffffffffffffffffffffffff160217905550606082015181600301556080820151816004015560a08201518160050155905050600360008681526020019081526020016000206000815480929190611af990615f43565b91905055505050505050565b6000806000548310611b4c576040517f08c379a0000000000000000000000000000000000000000000000000000000008152600401611b4390615b57565b60405180910390fd5b6001600084815260200190815260200160002060050154600160008581526020019081526020016000206006015491509150915091565b818160026000838152602001908152602001600020600082815260200190815260200160002060020160009054906101000a900473ffffffffffffffffffffffffffffffffffffffff1673ffffffffffffffffffffffffffffffffffffffff163373ffffffffffffffffffffffffffffffffffffffff1614611c3a576040517f08c379a0000000000000000000000000000000000000000000000000000000008152600401611c319061636c565b60405180910390fd5b6000548410611c7e576040517f08c379a0000000000000000000000000000000000000000000000000000000008152600401611c7590615b57565b60405180910390fd5b6001600085815260200190815260200160002060070160009054906101000a900460ff16611ce1576040517f08c379a0000000000000000000000000000000000000000000000000000000008152600401611cd8906163fe565b60405180910390fd5b611cea8461391e565b15611d2a576040517f08c379a0000000000000000000000000000000000000000000000000000000008152600401611d2190616490565b60405180910390fd5b600260008581526020019081526020016000206000848152602001908152602001600020600080820160009055600182016000611d679190614788565b6002820160006101000a81549073ffffffffffffffffffffffffffffffffffffffff02191690556003820160009055600482016000905560058201600090555050600360008581526020019081526020016000206000815480929190611dcc906164b0565b919050555050505050565b60005b600054811015611e6c576001600082815260200190815260200160002060070160009054906101000a900460ff168015611e2a575060016000828152602001908152602001600020600601544210155b15611e5f5760006001600083815260200190815260200160002060070160006101000a81548160ff0219169083151502179055505b8080600101915050611dda565b50565b600080548310611eb4576040517f08c379a0000000000000000000000000000000000000000000000000000000008152600401611eab90615b57565b60405180910390fd5b6009600084815260200190815260200160002060008373ffffffffffffffffffffffffffffffffffffffff1673ffffffffffffffffffffffffffffffffffffffff16815260200190815260200160002060009054906101000a900460ff16905092915050565b806001600082815260200190815260200160002060030160009054906101000a900473ffffffffffffffffffffffffffffffffffffffff1673ffffffffffffffffffffffffffffffffffffffff163373ffffffffffffffffffffffffffffffffffffffff1614611fbf576040517f08c379a0000000000000000000000000000000000000000000000000000000008152600401611fb690615aeb565b60405180910390fd5b6000548210612003576040517f08c379a0000000000000000000000000000000000000000000000000000000008152600401611ffa90615b57565b60405180910390fd5b4260016000848152602001908152602001600020600601541161205b576040517f08c379a000000000000000000000000000000000000000000000000000000000815260040161205290616525565b60405180910390fd5b6001600083815260200190815260200160002060070160009054906101000a900460ff16156120bf576040517f08c379a00000000000000000000000000000000000000000000000000000000081526004016120b690616591565b60405180910390fd5b426001600084815260200190815260200160002060050181905550600180600084815260200190815260200160002060070160006101000a81548160ff0219169083151502179055505050565b600080548210612151576040517f08c379a000000000000000000000000000000000000000000000000000000000815260040161214890615b57565b60405180910390fd5b60036000838152602001908152602001600020549050919050565b836001600082815260200190815260200160002060030160009054906101000a900473ffffffffffffffffffffffffffffffffffffffff1673ffffffffffffffffffffffffffffffffffffffff163373ffffffffffffffffffffffffffffffffffffffff1614612211576040517f08c379a000000000000000000000000000000000000000000000000000000000815260040161220890615aeb565b60405180910390fd5b6000548510612255576040517f08c379a000000000000000000000000000000000000000000000000000000000815260040161224c90615b57565b60405180910390fd5b60006005600087815260200190815260200160002054905060056000878152602001908152602001600020600081548092919061229190615f43565b91905055506040518060e001604052808281526020018681526020018473ffffffffffffffffffffffffffffffffffffffff168152602001856040516020016122da9190615efd565b60405160208183030381529060405280519060200120815260200160008152602001428152602001428152506004600088815260200190815260200160002060008381526020019081526020016000206000820151816000015560208201518160010190816123499190615def565b5060408201518160020160006101000a81548173ffffffffffffffffffffffffffffffffffffffff021916908373ffffffffffffffffffffffffffffffffffffffff160217905550606082015181600301556080820151816004015560a0820151816005015560c08201518160060155905050505050505050565b600080548210612409576040517f08c379a000000000000000000000000000000000000000000000000000000000815260040161240090615b57565b60405180910390fd5b6001600083815260200190815260200160002060070160009054906101000a900460ff169050919050565b60606000805467ffffffffffffffff811115612453576124526148e5565b5b60405190808252806020026020018201604052801561248c57816020015b612479614700565b8152602001906001900390816124715790505b5090506000805b6000548110156128155760005b6003600083815260200190815260200160002054811015612807578573ffffffffffffffffffffffffffffffffffffffff1660026000848152602001908152602001600020600083815260200190815260200160002060020160009054906101000a900473ffffffffffffffffffffffffffffffffffffffff1673ffffffffffffffffffffffffffffffffffffffff16036127fa5760016000838152602001908152602001600020604051806101600160405290816000820154815260200160018201805461256e90615c12565b80601f016020809104026020016040519081016040528092919081815260200182805461259a90615c12565b80156125e75780601f106125bc576101008083540402835291602001916125e7565b820191906000526020600020905b8154815290600101906020018083116125ca57829003601f168201915b5050505050815260200160028201805461260090615c12565b80601f016020809104026020016040519081016040528092919081815260200182805461262c90615c12565b80156126795780601f1061264e57610100808354040283529160200191612679565b820191906000526020600020905b81548152906001019060200180831161265c57829003601f168201915b505050505081526020016003820160009054906101000a900473ffffffffffffffffffffffffffffffffffffffff1673ffffffffffffffffffffffffffffffffffffffff1673ffffffffffffffffffffffffffffffffffffffff1681526020016004820160009054906101000a900473ffffffffffffffffffffffffffffffffffffffff1673ffffffffffffffffffffffffffffffffffffffff1673ffffffffffffffffffffffffffffffffffffffff16815260200160058201548152602001600682015481526020016007820160009054906101000a900460ff16151515158152602001600882018054806020026020016040519081016040528092919081815260200182805480156127ac57602002820191906000526020600020905b815481526020019060010190808311612798575b5050505050815260200160098201548152602001600a820154815250508484815181106127dc576127db6161cd565b5b602002602001018190525082806127f290615f43565b935050612807565b80806001019150506124a0565b508080600101915050612493565b508192505050919050565b6402540be3ff81565b60005481565b612837614700565b600054821061287b576040517f08c379a000000000000000000000000000000000000000000000000000000000815260040161287290615b57565b60405180910390fd5b6001600083815260200190815260200160002060405180610160016040529081600082015481526020016001820180546128b490615c12565b80601f01602080910402602001604051908101604052809291908181526020018280546128e090615c12565b801561292d5780601f106129025761010080835404028352916020019161292d565b820191906000526020600020905b81548152906001019060200180831161291057829003601f168201915b5050505050815260200160028201805461294690615c12565b80601f016020809104026020016040519081016040528092919081815260200182805461297290615c12565b80156129bf5780601f10612994576101008083540402835291602001916129bf565b820191906000526020600020905b8154815290600101906020018083116129a257829003601f168201915b505050505081526020016003820160009054906101000a900473ffffffffffffffffffffffffffffffffffffffff1673ffffffffffffffffffffffffffffffffffffffff1673ffffffffffffffffffffffffffffffffffffffff1681526020016004820160009054906101000a900473ffffffffffffffffffffffffffffffffffffffff1673ffffffffffffffffffffffffffffffffffffffff1673ffffffffffffffffffffffffffffffffffffffff16815260200160058201548152602001600682015481526020016007820160009054906101000a900460ff1615151515815260200160088201805480602002602001604051908101604052809291908181526020018280548015612af257602002820191906000526020600020905b815481526020019060010190808311612ade575b5050505050815260200160098201548152602001600a820154815250509050919050565b60606000805467ffffffffffffffff811115612b3557612b346148e5565b5b604051908082528060200260200182016040528015612b6e57816020015b612b5b614700565b815260200190600190039081612b535790505b5090506000805b600054811015612ef75760005b6005600083815260200190815260200160002054811015612ee9578573ffffffffffffffffffffffffffffffffffffffff1660046000848152602001908152602001600020600083815260200190815260200160002060020160009054906101000a900473ffffffffffffffffffffffffffffffffffffffff1673ffffffffffffffffffffffffffffffffffffffff1603612edc57600160008381526020019081526020016000206040518061016001604052908160008201548152602001600182018054612c5090615c12565b80601f0160208091040260200160405190810160405280929190818152602001828054612c7c90615c12565b8015612cc95780601f10612c9e57610100808354040283529160200191612cc9565b820191906000526020600020905b815481529060010190602001808311612cac57829003601f168201915b50505050508152602001600282018054612ce290615c12565b80601f0160208091040260200160405190810160405280929190818152602001828054612d0e90615c12565b8015612d5b5780601f10612d3057610100808354040283529160200191612d5b565b820191906000526020600020905b815481529060010190602001808311612d3e57829003601f168201915b505050505081526020016003820160009054906101000a900473ffffffffffffffffffffffffffffffffffffffff1673ffffffffffffffffffffffffffffffffffffffff1673ffffffffffffffffffffffffffffffffffffffff1681526020016004820160009054906101000a900473ffffffffffffffffffffffffffffffffffffffff1673ffffffffffffffffffffffffffffffffffffffff1673ffffffffffffffffffffffffffffffffffffffff16815260200160058201548152602001600682015481526020016007820160009054906101000a900460ff1615151515815260200160088201805480602002602001604051908101604052809291908181526020018280548015612e8e57602002820191906000526020600020905b815481526020019060010190808311612e7a575b5050505050815260200160098201548152602001600a82015481525050848481518110612ebe57612ebd6161cd565b5b60200260200101819052508280612ed490615f43565b935050612ee9565b8080600101915050612b82565b508080600101915050612b75565b508192505050919050565b816001600082815260200190815260200160002060030160009054906101000a900473ffffffffffffffffffffffffffffffffffffffff1673ffffffffffffffffffffffffffffffffffffffff163373ffffffffffffffffffffffffffffffffffffffff1614612fa7576040517f08c379a0000000000000000000000000000000000000000000000000000000008152600401612f9e90615aeb565b60405180910390fd5b6000548310612feb576040517f08c379a0000000000000000000000000000000000000000000000000000000008152600401612fe290615b57565b60405180910390fd5b6402540be3ff600160008581526020019081526020016000206006015414613048576040517f08c379a000000000000000000000000000000000000000000000000000000000815260040161303f906165fd565b60405180910390fd5b42600160008581526020019081526020016000206006018190555060006001600085815260200190815260200160002060070160006101000a81548160ff02191690831515021790555060016000848152602001908152602001600020600201826040516020016130ba9291906166a0565b6040516020818303038152906040526001600085815260200190815260200160002060020190816130eb9190615def565b504260016000858152602001908152602001600020600a0181905550505050565b60008054905090565b61311d6147c8565b6000548310613161576040517f08c379a000000000000000000000000000000000000000000000000000000000815260040161315890615b57565b60405180910390fd5b600760008481526020019081526020016000205482106131b6576040517f08c379a00000000000000000000000000000000000000000000000000000000081526004016131ad90616710565b60405180910390fd5b6006600084815260200190815260200160002060008381526020019081526020016000206040518060a0016040529081600082015481526020016001820180546131ff90615c12565b80601f016020809104026020016040519081016040528092919081815260200182805461322b90615c12565b80156132785780601f1061324d57610100808354040283529160200191613278565b820191906000526020600020905b81548152906001019060200180831161325b57829003601f168201915b5050505050815260200160028201805461329190615c12565b80601f01602080910402602001604051908101604052809291908181526020018280546132bd90615c12565b801561330a5780601f106132df5761010080835404028352916020019161330a565b820191906000526020600020905b8154815290600101906020018083116132ed57829003601f168201915b5050505050815260200160038201548152602001600482015481525050905092915050565b60006402540be3ff905090565b60606000805467ffffffffffffffff81111561335b5761335a6148e5565b5b60405190808252806020026020018201604052801561339457816020015b6133816147f7565b8152602001906001900390816133795790505b5090506000805b6000548110156138b5576133ae8161391e565b156138a8576001600082815260200190815260200160002060405180610160016040529081600082015481526020016001820180546133ec90615c12565b80601f016020809104026020016040519081016040528092919081815260200182805461341890615c12565b80156134655780601f1061343a57610100808354040283529160200191613465565b820191906000526020600020905b81548152906001019060200180831161344857829003601f168201915b5050505050815260200160028201805461347e90615c12565b80601f01602080910402602001604051908101604052809291908181526020018280546134aa90615c12565b80156134f75780601f106134cc576101008083540402835291602001916134f7565b820191906000526020600020905b8154815290600101906020018083116134da57829003601f168201915b505050505081526020016003820160009054906101000a900473ffffffffffffffffffffffffffffffffffffffff1673ffffffffffffffffffffffffffffffffffffffff1673ffffffffffffffffffffffffffffffffffffffff1681526020016004820160009054906101000a900473ffffffffffffffffffffffffffffffffffffffff1673ffffffffffffffffffffffffffffffffffffffff1673ffffffffffffffffffffffffffffffffffffffff16815260200160058201548152602001600682015481526020016007820160009054906101000a900460ff161515151581526020016008820180548060200260200160405190810160405280929190818152602001828054801561362a57602002820191906000526020600020905b815481526020019060010190808311613616575b5050505050815260200160098201548152602001600a8201548152505083838151811061365a576136596161cd565b5b602002602001015160000181905250600360008281526020019081526020016000205467ffffffffffffffff811115613696576136956148e5565b5b6040519080825280602002602001820160405280156136cf57816020015b6136bc614817565b8152602001906001900390816136b45790505b508383815181106136e3576136e26161cd565b5b60200260200101516020018190525060005b6003600083815260200190815260200160002054811015613898576002600083815260200190815260200160002060008281526020019081526020016000206040518060c00160405290816000820154815260200160018201805461375990615c12565b80601f016020809104026020016040519081016040528092919081815260200182805461378590615c12565b80156137d25780601f106137a7576101008083540402835291602001916137d2565b820191906000526020600020905b8154815290600101906020018083116137b557829003601f168201915b505050505081526020016002820160009054906101000a900473ffffffffffffffffffffffffffffffffffffffff1673ffffffffffffffffffffffffffffffffffffffff1673ffffffffffffffffffffffffffffffffffffffff1681526020016003820154815260200160048201548152602001600582015481525050848481518110613862576138616161cd565b5b60200260200101516020015182815181106138805761387f6161cd565b5b602002602001018190525080806001019150506136f5565b5081806138a490615f43565b9250505b808060010191505061339b565b50819250505090565b600080548210613903576040517f08c379a00000000000000000000000000000000000000000000000000000000081526004016138fa90615b57565b60405180910390fd5b60056000838152602001908152602001600020549050919050565b600080548210613963576040517f08c379a000000000000000000000000000000000000000000000000000000000815260040161395a90615b57565b60405180910390fd5b42600160008481526020019081526020016000206006015411159050919050565b60405180610160016040528060005481526020018681526020018581526020013373ffffffffffffffffffffffffffffffffffffffff168152602001600073ffffffffffffffffffffffffffffffffffffffff168152602001848152602001838152602001600015158152602001828152602001428152602001428152506001600080548152602001908152602001600020600082015181600001556020820151816001019081613a359190615def565b506040820151816002019081613a4b9190615def565b5060608201518160030160006101000a81548173ffffffffffffffffffffffffffffffffffffffff021916908373ffffffffffffffffffffffffffffffffffffffff16021790555060808201518160040160006101000a81548173ffffffffffffffffffffffffffffffffffffffff021916908373ffffffffffffffffffffffffffffffffffffffff16021790555060a0820151816005015560c0820151816006015560e08201518160070160006101000a81548160ff021916908315150217905550610100820151816008019080519060200190613b2b9291906146b3565b50610120820151816009015561014082015181600a0155905050600080815480929190613b5790615f43565b91905055505050505050565b816001600082815260200190815260200160002060030160009054906101000a900473ffffffffffffffffffffffffffffffffffffffff1673ffffffffffffffffffffffffffffffffffffffff163373ffffffffffffffffffffffffffffffffffffffff1614613c08576040517f08c379a0000000000000000000000000000000000000000000000000000000008152600401613bff90615aeb565b60405180910390fd5b6000548310613c4c576040517f08c379a0000000000000000000000000000000000000000000000000000000008152600401613c4390615b57565b60405180910390fd5b6001600084815260200190815260200160002060070160009054906101000a900460ff16613caf576040517f08c379a0000000000000000000000000000000000000000000000000000000008152600401613ca690615fd7565b60405180910390fd5b81600160008581526020019081526020016000206006016000828254613cd59190616730565b92505081905550505050565b60606000805467ffffffffffffffff811115613d0057613cff6148e5565b5b604051908082528060200260200182016040528015613d3957816020015b613d26614700565b815260200190600190039081613d1e5790505b5090506000805b6000548110156140875760005b60016000838152602001908152602001600020600801805490508110156140795785600160008481526020019081526020016000206008018281548110613d9757613d966161cd565b5b90600052602060002001540361406c57600160008381526020019081526020016000206040518061016001604052908160008201548152602001600182018054613de090615c12565b80601f0160208091040260200160405190810160405280929190818152602001828054613e0c90615c12565b8015613e595780601f10613e2e57610100808354040283529160200191613e59565b820191906000526020600020905b815481529060010190602001808311613e3c57829003601f168201915b50505050508152602001600282018054613e7290615c12565b80601f0160208091040260200160405190810160405280929190818152602001828054613e9e90615c12565b8015613eeb5780601f10613ec057610100808354040283529160200191613eeb565b820191906000526020600020905b815481529060010190602001808311613ece57829003601f168201915b505050505081526020016003820160009054906101000a900473ffffffffffffffffffffffffffffffffffffffff1673ffffffffffffffffffffffffffffffffffffffff1673ffffffffffffffffffffffffffffffffffffffff1681526020016004820160009054906101000a900473ffffffffffffffffffffffffffffffffffffffff1673ffffffffffffffffffffffffffffffffffffffff1673ffffffffffffffffffffffffffffffffffffffff16815260200160058201548152602001600682015481526020016007820160009054906101000a900460ff161515151581526020016008820180548060200260200160405190810160405280929190818152602001828054801561401e57602002820191906000526020600020905b81548152602001906001019080831161400a575b5050505050815260200160098201548152602001600a8201548152505084848151811061404e5761404d6161cd565b5b6020026020010181905250828061406490615f43565b935050614079565b8080600101915050613d4d565b508080600101915050613d40565b508192505050919050565b816001600082815260200190815260200160002060030160009054906101000a900473ffffffffffffffffffffffffffffffffffffffff1673ffffffffffffffffffffffffffffffffffffffff163373ffffffffffffffffffffffffffffffffffffffff1614614137576040517f08c379a000000000000000000000000000000000000000000000000000000000815260040161412e90615aeb565b60405180910390fd5b600054831061417b576040517f08c379a000000000000000000000000000000000000000000000000000000000815260040161417290615b57565b60405180910390fd5b614184836123c4565b156141c4576040517f08c379a00000000000000000000000000000000000000000000000000000000081526004016141bb906162da565b60405180910390fd5b60036000848152602001908152602001600020548210614219576040517f08c379a0000000000000000000000000000000000000000000000000000000008152600401614210906160af565b60405180910390fd5b6002600084815260200190815260200160002060008381526020019081526020016000206000808201600090556001820160006142569190614788565b6002820160006101000a81549073ffffffffffffffffffffffffffffffffffffffff021916905560038201600090556004820160009055600582016000905550506003600084815260200190815260200160002060008154809291906142bb906164b0565b9190505550505050565b6142cd614817565b6000548310614311576040517f08c379a000000000000000000000000000000000000000000000000000000000815260040161430890615b57565b60405180910390fd5b60036000848152602001908152602001600020548210614366576040517f08c379a000000000000000000000000000000000000000000000000000000000815260040161435d906160af565b60405180910390fd5b6002600084815260200190815260200160002060008381526020019081526020016000206040518060c0016040529081600082015481526020016001820180546143af90615c12565b80601f01602080910402602001604051908101604052809291908181526020018280546143db90615c12565b80156144285780601f106143fd57610100808354040283529160200191614428565b820191906000526020600020905b81548152906001019060200180831161440b57829003601f168201915b505050505081526020016002820160009054906101000a900473ffffffffffffffffffffffffffffffffffffffff1673ffffffffffffffffffffffffffffffffffffffff1673ffffffffffffffffffffffffffffffffffffffff1681526020016003820154815260200160048201548152602001600582015481525050905092915050565b826001600082815260200190815260200160002060030160009054906101000a900473ffffffffffffffffffffffffffffffffffffffff1673ffffffffffffffffffffffffffffffffffffffff163373ffffffffffffffffffffffffffffffffffffffff1614614552576040517f08c379a000000000000000000000000000000000000000000000000000000000815260040161454990615aeb565b60405180910390fd5b6000548410614596576040517f08c379a000000000000000000000000000000000000000000000000000000000815260040161458d90615b57565b60405180910390fd5b61459f846123c4565b156145df576040517f08c379a00000000000000000000000000000000000000000000000000000000081526004016145d6906167d6565b60405180910390fd5b818310614621576040517f08c379a000000000000000000000000000000000000000000000000000000000815260040161461890616868565b60405180910390fd5b82600160008681526020019081526020016000206005018190555081600160008681526020019081526020016000206006018190555050505050565b6040518060e001604052806000815260200160608152602001600073ffffffffffffffffffffffffffffffffffffffff168152602001600080191681526020016000815260200160008152602001600081525090565b8280548282559060005260206000209081019282156146ef579160200282015b828111156146ee5782518255916020019190600101906146d3565b5b5090506146fc9190614863565b5090565b604051806101600160405280600081526020016060815260200160608152602001600073ffffffffffffffffffffffffffffffffffffffff168152602001600073ffffffffffffffffffffffffffffffffffffffff16815260200160008152602001600081526020016000151581526020016060815260200160008152602001600081525090565b50805461479490615c12565b6000825580601f106147a657506147c5565b601f0160209004906000526020600020908101906147c49190614863565b5b50565b6040518060a0016040528060008152602001606081526020016060815260200160008152602001600081525090565b604051806040016040528061480a614700565b8152602001606081525090565b6040518060c001604052806000815260200160608152602001600073ffffffffffffffffffffffffffffffffffffffff1681526020016000815260200160008152602001600081525090565b5b8082111561487c576000816000905550600101614864565b5090565b6000604051905090565b600080fd5b600080fd5b6000819050919050565b6148a781614894565b81146148b257600080fd5b50565b6000813590506148c48161489e565b92915050565b600080fd5b600080fd5b6000601f19601f8301169050919050565b7f4e487b7100000000000000000000000000000000000000000000000000000000600052604160045260246000fd5b61491d826148d4565b810181811067ffffffffffffffff8211171561493c5761493b6148e5565b5b80604052505050565b600061494f614880565b905061495b8282614914565b919050565b600067ffffffffffffffff82111561497b5761497a6148e5565b5b614984826148d4565b9050602081019050919050565b82818337600083830152505050565b60006149b36149ae84614960565b614945565b9050828152602081018484840111156149cf576149ce6148cf565b5b6149da848285614991565b509392505050565b600082601f8301126149f7576149f66148ca565b5b8135614a078482602086016149a0565b91505092915050565b600080600080600060a08688031215614a2c57614a2b61488a565b5b6000614a3a888289016148b5565b9550506020614a4b888289016148b5565b945050604086013567ffffffffffffffff811115614a6c57614a6b61488f565b5b614a78888289016149e2565b935050606086013567ffffffffffffffff811115614a9957614a9861488f565b5b614aa5888289016149e2565b9250506080614ab6888289016148b5565b9150509295509295909350565b600080600060608486031215614adc57614adb61488a565b5b6000614aea868287016148b5565b935050602084013567ffffffffffffffff811115614b0b57614b0a61488f565b5b614b17868287016149e2565b925050604084013567ffffffffffffffff811115614b3857614b3761488f565b5b614b44868287016149e2565b9150509250925092565b60008060408385031215614b6557614b6461488a565b5b6000614b73858286016148b5565b9250506020614b84858286016148b5565b9150509250929050565b614b9781614894565b82525050565b600081519050919050565b600082825260208201905092915050565b60005b83811015614bd7578082015181840152602081019050614bbc565b60008484015250505050565b6000614bee82614b9d565b614bf88185614ba8565b9350614c08818560208601614bb9565b614c11816148d4565b840191505092915050565b600073ffffffffffffffffffffffffffffffffffffffff82169050919050565b6000614c4782614c1c565b9050919050565b614c5781614c3c565b82525050565b6000819050919050565b614c7081614c5d565b82525050565b600060e083016000830151614c8e6000860182614b8e565b5060208301518482036020860152614ca68282614be3565b9150506040830151614cbb6040860182614c4e565b506060830151614cce6060860182614c67565b506080830151614ce16080860182614b8e565b5060a0830151614cf460a0860182614b8e565b5060c0830151614d0760c0860182614b8e565b508091505092915050565b60006020820190508181036000830152614d2c8184614c76565b905092915050565b600060208284031215614d4a57614d4961488a565b5b6000614d58848285016148b5565b91505092915050565b614d6a81614894565b82525050565b6000602082019050614d856000830184614d61565b92915050565b600067ffffffffffffffff821115614da657614da56148e5565b5b602082029050602081019050919050565b600080fd5b6000614dcf614dca84614d8b565b614945565b90508083825260208201905060208402830185811115614df257614df1614db7565b5b835b81811015614e1b5780614e0788826148b5565b845260208401935050602081019050614df4565b5050509392505050565b600082601f830112614e3a57614e396148ca565b5b8135614e4a848260208601614dbc565b91505092915050565b600080600060608486031215614e6c57614e6b61488a565b5b600084013567ffffffffffffffff811115614e8a57614e8961488f565b5b614e96868287016149e2565b935050602084013567ffffffffffffffff811115614eb757614eb661488f565b5b614ec3868287016149e2565b925050604084013567ffffffffffffffff811115614ee457614ee361488f565b5b614ef086828701614e25565b9150509250925092565b600081519050919050565b600082825260208201905092915050565b6000819050602082019050919050565b60008115159050919050565b614f3b81614f26565b82525050565b600081519050919050565b600082825260208201905092915050565b6000819050602082019050919050565b6000614f798383614b8e565b60208301905092915050565b6000602082019050919050565b6000614f9d82614f41565b614fa78185614f4c565b9350614fb283614f5d565b8060005b83811015614fe3578151614fca8882614f6d565b9750614fd583614f85565b925050600181019050614fb6565b5085935050505092915050565b6000610160830160008301516150096000860182614b8e565b50602083015184820360208601526150218282614be3565b9150506040830151848203604086015261503b8282614be3565b91505060608301516150506060860182614c4e565b5060808301516150636080860182614c4e565b5060a083015161507660a0860182614b8e565b5060c083015161508960c0860182614b8e565b5060e083015161509c60e0860182614f32565b506101008301518482036101008601526150b68282614f92565b9150506101208301516150cd610120860182614b8e565b506101408301516150e2610140860182614b8e565b508091505092915050565b60006150f98383614ff0565b905092915050565b6000602082019050919050565b600061511982614efa565b6151238185614f05565b93508360208202850161513585614f16565b8060005b85811015615171578484038952815161515285826150ed565b945061515d83615101565b925060208a01995050600181019050615139565b50829750879550505050505092915050565b6000602082019050818103600083015261519d818461510e565b905092915050565b6000806000606084860312156151be576151bd61488a565b5b60006151cc868287016148b5565b93505060206151dd868287016148b5565b925050604084013567ffffffffffffffff8111156151fe576151fd61488f565b5b61520a868287016149e2565b9150509250925092565b61521d81614c3c565b811461522857600080fd5b50565b60008135905061523a81615214565b92915050565b6000806000606084860312156152595761525861488a565b5b6000615267868287016148b5565b935050602084013567ffffffffffffffff8111156152885761528761488f565b5b615294868287016149e2565b92505060406152a58682870161522b565b9150509250925092565b60006040820190506152c46000830185614d61565b6152d16020830184614d61565b9392505050565b600080604083850312156152ef576152ee61488a565b5b60006152fd858286016148b5565b925050602061530e8582860161522b565b9150509250929050565b61532181614f26565b82525050565b600060208201905061533c6000830184615318565b92915050565b6000806000806080858703121561535c5761535b61488a565b5b600061536a878288016148b5565b945050602085013567ffffffffffffffff81111561538b5761538a61488f565b5b615397878288016149e2565b935050604085013567ffffffffffffffff8111156153b8576153b761488f565b5b6153c4878288016149e2565b92505060606153d58782880161522b565b91505092959194509250565b6000602082840312156153f7576153f661488a565b5b60006154058482850161522b565b91505092915050565b6000610160830160008301516154276000860182614b8e565b506020830151848203602086015261543f8282614be3565b915050604083015184820360408601526154598282614be3565b915050606083015161546e6060860182614c4e565b5060808301516154816080860182614c4e565b5060a083015161549460a0860182614b8e565b5060c08301516154a760c0860182614b8e565b5060e08301516154ba60e0860182614f32565b506101008301518482036101008601526154d48282614f92565b9150506101208301516154eb610120860182614b8e565b50610140830151615500610140860182614b8e565b508091505092915050565b60006020820190508181036000830152615525818461540e565b905092915050565b600080604083850312156155445761554361488a565b5b6000615552858286016148b5565b925050602083013567ffffffffffffffff8111156155735761557261488f565b5b61557f858286016149e2565b9150509250929050565b600060a0830160008301516155a16000860182614b8e565b50602083015184820360208601526155b98282614be3565b915050604083015184820360408601526155d38282614be3565b91505060608301516155e86060860182614b8e565b5060808301516155fb6080860182614b8e565b508091505092915050565b600060208201905081810360008301526156208184615589565b905092915050565b600081519050919050565b600082825260208201905092915050565b6000819050602082019050919050565b600081519050919050565b600082825260208201905092915050565b6000819050602082019050919050565b600060c0830160008301516156986000860182614b8e565b50602083015184820360208601526156b08282614be3565b91505060408301516156c56040860182614c4e565b5060608301516156d86060860182614b8e565b5060808301516156eb6080860182614b8e565b5060a08301516156fe60a0860182614b8e565b508091505092915050565b60006157158383615680565b905092915050565b6000602082019050919050565b600061573582615654565b61573f818561565f565b93508360208202850161575185615670565b8060005b8581101561578d578484038952815161576e8582615709565b94506157798361571d565b925060208a01995050600181019050615755565b50829750879550505050505092915050565b600060408301600083015184820360008601526157bc8282614ff0565b915050602083015184820360208601526157d6828261572a565b9150508091505092915050565b60006157ef838361579f565b905092915050565b6000602082019050919050565b600061580f82615628565b6158198185615633565b93508360208202850161582b85615644565b8060005b85811015615867578484038952815161584885826157e3565b9450615853836157f7565b925060208a0199505060018101905061582f565b50829750879550505050505092915050565b600060208201905081810360008301526158938184615804565b905092915050565b600080600080600060a086880312156158b7576158b661488a565b5b600086013567ffffffffffffffff8111156158d5576158d461488f565b5b6158e1888289016149e2565b955050602086013567ffffffffffffffff8111156159025761590161488f565b5b61590e888289016149e2565b945050604061591f888289016148b5565b9350506060615930888289016148b5565b925050608086013567ffffffffffffffff8111156159515761595061488f565b5b61595d88828901614e25565b9150509295509295909350565b600060c0830160008301516159826000860182614b8e565b506020830151848203602086015261599a8282614be3565b91505060408301516159af6040860182614c4e565b5060608301516159c26060860182614b8e565b5060808301516159d56080860182614b8e565b5060a08301516159e860a0860182614b8e565b508091505092915050565b60006020820190508181036000830152615a0d818461596a565b905092915050565b600080600060608486031215615a2e57615a2d61488a565b5b6000615a3c868287016148b5565b9350506020615a4d868287016148b5565b9250506040615a5e868287016148b5565b9150509250925092565b600082825260208201905092915050565b7f4f6e6c792041646d696e732063616e20706572666f726d20746869732061637460008201527f696f6e0000000000000000000000000000000000000000000000000000000000602082015250565b6000615ad5602383615a68565b9150615ae082615a79565b604082019050919050565b60006020820190508181036000830152615b0481615ac8565b9050919050565b7f456c656374696f6e20646f6573206e6f74206578697374000000000000000000600082015250565b6000615b41601783615a68565b9150615b4c82615b0b565b602082019050919050565b60006020820190508181036000830152615b7081615b34565b9050919050565b7f566f74657220646f6573206e6f74206578697374000000000000000000000000600082015250565b6000615bad601483615a68565b9150615bb882615b77565b602082019050919050565b60006020820190508181036000830152615bdc81615ba0565b9050919050565b7f4e487b7100000000000000000000000000000000000000000000000000000000600052602260045260246000fd5b60006002820490506001821680615c2a57607f821691505b602082108103615c3d57615c3c615be3565b5b50919050565b60008190508160005260206000209050919050565b60006020601f8301049050919050565b600082821b905092915050565b600060088302615ca57fffffffffffffffffffffffffffffffffffffffffffffffffffffffffffffffff82615c68565b615caf8683615c68565b95508019841693508086168417925050509392505050565b6000819050919050565b6000615cec615ce7615ce284614894565b615cc7565b614894565b9050919050565b6000819050919050565b615d0683615cd1565b615d1a615d1282615cf3565b848454615c75565b825550505050565b600090565b615d2f615d22565b615d3a818484615cfd565b505050565b5b81811015615d5e57615d53600082615d27565b600181019050615d40565b5050565b601f821115615da357615d7481615c43565b615d7d84615c58565b81016020851015615d8c578190505b615da0615d9885615c58565b830182615d3f565b50505b505050565b600082821c905092915050565b6000615dc660001984600802615da8565b1980831691505092915050565b6000615ddf8383615db5565b9150826002028217905092915050565b615df882614b9d565b67ffffffffffffffff811115615e1157615e106148e5565b5b615e1b8254615c12565b615e26828285615d62565b600060209050601f831160018114615e595760008415615e47578287015190505b615e518582615dd3565b865550615eb9565b601f198416615e6786615c43565b60005b82811015615e8f57848901518255600182019150602085019450602081019050615e6a565b86831015615eac5784890151615ea8601f891682615db5565b8355505b6001600288020188555050505b505050505050565b600081905092915050565b6000615ed782614b9d565b615ee18185615ec1565b9350615ef1818560208601614bb9565b80840191505092915050565b6000615f098284615ecc565b915081905092915050565b7f4e487b7100000000000000000000000000000000000000000000000000000000600052601160045260246000fd5b6000615f4e82614894565b91507fffffffffffffffffffffffffffffffffffffffffffffffffffffffffffffffff8203615f8057615f7f615f14565b5b600182019050919050565b7f456c656374696f6e20686173206e6f7420737461727465642079657400000000600082015250565b6000615fc1601c83615a68565b9150615fcc82615f8b565b602082019050919050565b60006020820190508181036000830152615ff081615fb4565b9050919050565b7f456c656374696f6e2068617320656e6465640000000000000000000000000000600082015250565b600061602d601283615a68565b915061603882615ff7565b602082019050919050565b6000602082019050818103600083015261605c81616020565b9050919050565b7f43616e64696461746520646f6573206e6f742065786973740000000000000000600082015250565b6000616099601883615a68565b91506160a482616063565b602082019050919050565b600060208201905081810360008301526160c88161608c565b9050919050565b7f566f7465722068617320616c726561647920766f746564000000000000000000600082015250565b6000616105601783615a68565b9150616110826160cf565b602082019050919050565b60006020820190508181036000830152616134816160f8565b9050919050565b7f566f746572206973206e6f74207265676973746572656420666f72207468697360008201527f20656c656374696f6e0000000000000000000000000000000000000000000000602082015250565b6000616197602983615a68565b91506161a28261613b565b604082019050919050565b600060208201905081810360008301526161c68161618a565b9050919050565b7f4e487b7100000000000000000000000000000000000000000000000000000000600052603260045260246000fd5b7f43616e6e6f74207570646174652063616e64696461746520616674657220766f60008201527f74696e6720686173207374617274656400000000000000000000000000000000602082015250565b6000616258603083615a68565b9150616263826161fc565b604082019050919050565b600060208201905081810360008301526162878161624b565b9050919050565b7f566f74696e672068617320616c72656164792073746172746564000000000000600082015250565b60006162c4601a83615a68565b91506162cf8261628e565b602082019050919050565b600060208201905081810360008301526162f3816162b7565b9050919050565b7f4f6e6c792043616e646964617465732063616e20706572666f726d207468697360008201527f20616374696f6e00000000000000000000000000000000000000000000000000602082015250565b6000616356602783615a68565b9150616361826162fa565b604082019050919050565b6000602082019050818103600083015261638581616349565b9050919050565b7f43616e6e6f742077697468647261772c2074686520656c656374696f6e20686160008201527f73206e6f74207374617274656400000000000000000000000000000000000000602082015250565b60006163e8602d83615a68565b91506163f38261638c565b604082019050919050565b60006020820190508181036000830152616417816163db565b9050919050565b7f43616e6e6f742077697468647261772c2074686520656c656374696f6e20686160008201527f7320656e6465642e000000000000000000000000000000000000000000000000602082015250565b600061647a602883615a68565b91506164858261641e565b604082019050919050565b600060208201905081810360008301526164a98161646d565b9050919050565b60006164bb82614894565b9150600082036164ce576164cd615f14565b5b600182039050919050565b7f456c656374696f6e2068617320616c72656164792066696e69736865642e0000600082015250565b600061650f601e83615a68565b915061651a826164d9565b602082019050919050565b6000602082019050818103600083015261653e81616502565b9050919050565b7f456c656374696f6e2068617320616c7265616479207374617274656400000000600082015250565b600061657b601c83615a68565b915061658682616545565b602082019050919050565b600060208201905081810360008301526165aa8161656e565b9050919050565b7f456c656374696f6e20616c726561647920636c6f736564210000000000000000600082015250565b60006165e7601883615a68565b91506165f2826165b1565b602082019050919050565b60006020820190508181036000830152616616816165da565b9050919050565b6000815461662a81615c12565b6166348186615ec1565b9450600182166000811461664f576001811461666457616697565b60ff1983168652811515820286019350616697565b61666d85615c43565b60005b8381101561668f57815481890152600182019150602081019050616670565b838801955050505b50505092915050565b60006166ac828561661d565b91506166b88284615ecc565b91508190509392505050565b7f446973747269637420646f6573206e6f74206578697374000000000000000000600082015250565b60006166fa601783615a68565b9150616705826166c4565b602082019050919050565b60006020820190508181036000830152616729816166ed565b9050919050565b600061673b82614894565b915061674683614894565b925082820190508082111561675e5761675d615f14565b5b92915050565b7f43616e6e6f74206368616e676520656c656374696f6e20706572696f6420616660008201527f7465722069742068617320737461727465640000000000000000000000000000602082015250565b60006167c0603283615a68565b91506167cb82616764565b604082019050919050565b600060208201905081810360008301526167ef816167b3565b9050919050565b7f537461727420706572696f64206d757374206265206265666f726520656e642060008201527f706572696f640000000000000000000000000000000000000000000000000000602082015250565b6000616852602683615a68565b915061685d826167f6565b604082019050919050565b6000602082019050818103600083015261688181616845565b905091905056fea2646970667358221220d3a89c0e4aaedb138bd98dbbcf726afef3f6c9ec75194c19472a2910a28a35b364736f6c63430008180033",
  "linkReferences": {},
  "deployedLinkReferences": {}
}