{
  "_format": "hh-sol-artifact-1",
  "contractName": "Voting",
  "sourceName": "contracts/Voting.sol",
  "abi": [
    {
      "inputs": [],
      "stateMutability": "nonpayable",
      "type": "constructor"
    },
    {
      "anonymous": false,
      "inputs": [
        {
          "indexed": true,
          "internalType": "address",
          "name": "voter",
          "type": "address"
        },
        {
          "indexed": true,
          "internalType": "address",
          "name": "election",
          "type": "address"
        },
        {
          "indexed": false,
          "internalType": "uint256",
          "name": "timestamp",
          "type": "uint256"
        }
      ],
      "name": "Voted",
      "type": "event"
    },
    {
      "inputs": [],
      "name": "MAX_TIMESTAMP",
      "outputs": [
        {
          "internalType": "uint256",
          "name": "",
          "type": "uint256"
        }
      ],
      "stateMutability": "view",
      "type": "function"
    },
    {
      "inputs": [
        {
          "internalType": "uint256",
          "name": "_electionId",
          "type": "uint256"
        },
        {
          "internalType": "string",
          "name": "_name",
          "type": "string"
        },
        {
          "internalType": "address",
          "name": "_delegate",
          "type": "address"
        }
      ],
      "name": "addCandidate",
      "outputs": [],
      "stateMutability": "nonpayable",
      "type": "function"
    },
    {
      "inputs": [
        {
          "internalType": "uint256",
          "name": "_electionId",
          "type": "uint256"
        },
        {
          "internalType": "string",
          "name": "_name",
          "type": "string"
        },
        {
          "internalType": "string",
          "name": "_password",
          "type": "string"
        },
        {
          "internalType": "address",
          "name": "_delegate",
          "type": "address"
        }
      ],
      "name": "addVoter",
      "outputs": [],
      "stateMutability": "nonpayable",
      "type": "function"
    },
    {
      "inputs": [
        {
          "internalType": "uint256",
          "name": "_electionId",
          "type": "uint256"
        },
        {
          "internalType": "uint256",
          "name": "_candidateId",
          "type": "uint256"
        }
      ],
      "name": "castVote",
      "outputs": [],
      "stateMutability": "nonpayable",
      "type": "function"
    },
    {
      "inputs": [
        {
          "internalType": "string",
          "name": "_name",
          "type": "string"
        },
        {
          "internalType": "string",
          "name": "_description",
          "type": "string"
        },
        {
          "internalType": "uint256",
          "name": "_startedAt",
          "type": "uint256"
        },
        {
          "internalType": "uint256",
          "name": "_endedAt",
          "type": "uint256"
        }
      ],
      "name": "createElection",
      "outputs": [],
      "stateMutability": "nonpayable",
      "type": "function"
    },
    {
      "inputs": [
        {
          "internalType": "string",
          "name": "_name",
          "type": "string"
        },
        {
          "internalType": "string",
          "name": "_description",
          "type": "string"
        }
      ],
      "name": "createElection",
      "outputs": [],
      "stateMutability": "nonpayable",
      "type": "function"
    },
    {
      "inputs": [],
      "name": "electionsCount",
      "outputs": [
        {
          "internalType": "uint256",
          "name": "",
          "type": "uint256"
        }
      ],
      "stateMutability": "view",
      "type": "function"
    },
    {
      "inputs": [
        {
          "internalType": "uint256",
          "name": "_electionId",
          "type": "uint256"
        },
        {
          "internalType": "string",
          "name": "_desc",
          "type": "string"
        }
      ],
      "name": "endElection",
      "outputs": [],
      "stateMutability": "nonpayable",
      "type": "function"
    },
    {
      "inputs": [],
      "name": "endElections",
      "outputs": [],
      "stateMutability": "nonpayable",
      "type": "function"
    },
    {
      "inputs": [
        {
          "internalType": "uint256",
          "name": "_electionId",
          "type": "uint256"
        },
        {
          "internalType": "uint256",
          "name": "time",
          "type": "uint256"
        }
      ],
      "name": "extendElectionPeriod",
      "outputs": [],
      "stateMutability": "nonpayable",
      "type": "function"
    },
    {
      "inputs": [
        {
          "internalType": "address",
          "name": "_delegate",
          "type": "address"
        }
      ],
      "name": "getCandidateElections",
      "outputs": [
        {
          "components": [
            {
              "internalType": "uint256",
              "name": "id",
              "type": "uint256"
            },
            {
              "internalType": "string",
              "name": "name",
              "type": "string"
            },
            {
              "internalType": "string",
              "name": "description",
              "type": "string"
            },
            {
              "internalType": "address",
              "name": "admin",
              "type": "address"
            },
            {
              "internalType": "address",
              "name": "ballotAddress",
              "type": "address"
            },
            {
              "internalType": "uint256",
              "name": "startedAt",
              "type": "uint256"
            },
            {
              "internalType": "uint256",
              "name": "endedAt",
              "type": "uint256"
            },
            {
              "internalType": "bool",
              "name": "isStarted",
              "type": "bool"
            },
            {
              "internalType": "uint256",
              "name": "createdAt",
              "type": "uint256"
            },
            {
              "internalType": "uint256",
              "name": "updatedAt",
              "type": "uint256"
            }
          ],
          "internalType": "struct Voting.Election[]",
          "name": "",
          "type": "tuple[]"
        }
      ],
      "stateMutability": "view",
      "type": "function"
    },
    {
      "inputs": [
        {
          "internalType": "uint256",
          "name": "_electionId",
          "type": "uint256"
        }
      ],
      "name": "getElection",
      "outputs": [
        {
          "components": [
            {
              "internalType": "uint256",
              "name": "id",
              "type": "uint256"
            },
            {
              "internalType": "string",
              "name": "name",
              "type": "string"
            },
            {
              "internalType": "string",
              "name": "description",
              "type": "string"
            },
            {
              "internalType": "address",
              "name": "admin",
              "type": "address"
            },
            {
              "internalType": "address",
              "name": "ballotAddress",
              "type": "address"
            },
            {
              "internalType": "uint256",
              "name": "startedAt",
              "type": "uint256"
            },
            {
              "internalType": "uint256",
              "name": "endedAt",
              "type": "uint256"
            },
            {
              "internalType": "bool",
              "name": "isStarted",
              "type": "bool"
            },
            {
              "internalType": "uint256",
              "name": "createdAt",
              "type": "uint256"
            },
            {
              "internalType": "uint256",
              "name": "updatedAt",
              "type": "uint256"
            }
          ],
          "internalType": "struct Voting.Election",
          "name": "",
          "type": "tuple"
        }
      ],
      "stateMutability": "view",
      "type": "function"
    },
    {
      "inputs": [
        {
          "internalType": "uint256",
          "name": "_electionId",
          "type": "uint256"
        },
        {
          "internalType": "uint256",
          "name": "_candidateId",
          "type": "uint256"
        }
      ],
      "name": "getElectionCandidate",
      "outputs": [
        {
          "components": [
            {
              "internalType": "uint256",
              "name": "id",
              "type": "uint256"
            },
            {
              "internalType": "string",
              "name": "name",
              "type": "string"
            },
            {
              "internalType": "address",
              "name": "delegate",
              "type": "address"
            },
            {
              "internalType": "uint256",
              "name": "votes",
              "type": "uint256"
            },
            {
              "internalType": "uint256",
              "name": "createdAt",
              "type": "uint256"
            },
            {
              "internalType": "uint256",
              "name": "updatedAt",
              "type": "uint256"
            }
          ],
          "internalType": "struct Voting.Candidate",
          "name": "",
          "type": "tuple"
        }
      ],
      "stateMutability": "view",
      "type": "function"
    },
    {
      "inputs": [
        {
          "internalType": "uint256",
          "name": "_electionId",
          "type": "uint256"
        }
      ],
      "name": "getElectionCandidatesCount",
      "outputs": [
        {
          "internalType": "uint256",
          "name": "",
          "type": "uint256"
        }
      ],
      "stateMutability": "view",
      "type": "function"
    },
    {
      "inputs": [
        {
          "internalType": "uint256",
          "name": "_electionId",
          "type": "uint256"
        }
      ],
      "name": "getElectionPeriod",
      "outputs": [
        {
          "internalType": "uint256",
          "name": "startPeriod",
          "type": "uint256"
        },
        {
          "internalType": "uint256",
          "name": "endPeriod",
          "type": "uint256"
        }
      ],
      "stateMutability": "view",
      "type": "function"
    },
    {
      "inputs": [
        {
          "internalType": "uint256",
          "name": "_electionId",
          "type": "uint256"
        },
        {
          "internalType": "uint256",
          "name": "_voterId",
          "type": "uint256"
        }
      ],
      "name": "getElectionVoter",
      "outputs": [
        {
          "components": [
            {
              "internalType": "uint256",
              "name": "id",
              "type": "uint256"
            },
            {
              "internalType": "string",
              "name": "name",
              "type": "string"
            },
            {
              "internalType": "address",
              "name": "delegate",
              "type": "address"
            },
            {
              "internalType": "bytes32",
              "name": "passwordHash",
              "type": "bytes32"
            },
            {
              "internalType": "uint256",
              "name": "createdAt",
              "type": "uint256"
            },
            {
              "internalType": "uint256",
              "name": "updatedAt",
              "type": "uint256"
            }
          ],
          "internalType": "struct Voting.Voter",
          "name": "",
          "type": "tuple"
        }
      ],
      "stateMutability": "view",
      "type": "function"
    },
    {
      "inputs": [
        {
          "internalType": "uint256",
          "name": "_electionId",
          "type": "uint256"
        }
      ],
      "name": "getElectionVotersCount",
      "outputs": [
        {
          "internalType": "uint256",
          "name": "",
          "type": "uint256"
        }
      ],
      "stateMutability": "view",
      "type": "function"
    },
    {
      "inputs": [],
      "name": "getElectionsCount",
      "outputs": [
        {
          "internalType": "uint256",
          "name": "",
          "type": "uint256"
        }
      ],
      "stateMutability": "view",
      "type": "function"
    },
    {
      "inputs": [],
      "name": "getElectionsWithResults",
      "outputs": [
        {
          "components": [
            {
              "components": [
                {
                  "internalType": "uint256",
                  "name": "id",
                  "type": "uint256"
                },
                {
                  "internalType": "string",
                  "name": "name",
                  "type": "string"
                },
                {
                  "internalType": "string",
                  "name": "description",
                  "type": "string"
                },
                {
                  "internalType": "address",
                  "name": "admin",
                  "type": "address"
                },
                {
                  "internalType": "address",
                  "name": "ballotAddress",
                  "type": "address"
                },
                {
                  "internalType": "uint256",
                  "name": "startedAt",
                  "type": "uint256"
                },
                {
                  "internalType": "uint256",
                  "name": "endedAt",
                  "type": "uint256"
                },
                {
                  "internalType": "bool",
                  "name": "isStarted",
                  "type": "bool"
                },
                {
                  "internalType": "uint256",
                  "name": "createdAt",
                  "type": "uint256"
                },
                {
                  "internalType": "uint256",
                  "name": "updatedAt",
                  "type": "uint256"
                }
              ],
              "internalType": "struct Voting.Election",
              "name": "election",
              "type": "tuple"
            },
            {
              "components": [
                {
                  "internalType": "uint256",
                  "name": "id",
                  "type": "uint256"
                },
                {
                  "internalType": "string",
                  "name": "name",
                  "type": "string"
                },
                {
                  "internalType": "address",
                  "name": "delegate",
                  "type": "address"
                },
                {
                  "internalType": "uint256",
                  "name": "votes",
                  "type": "uint256"
                },
                {
                  "internalType": "uint256",
                  "name": "createdAt",
                  "type": "uint256"
                },
                {
                  "internalType": "uint256",
                  "name": "updatedAt",
                  "type": "uint256"
                }
              ],
              "internalType": "struct Voting.Candidate[]",
              "name": "candidates",
              "type": "tuple[]"
            }
          ],
          "internalType": "struct Voting.ElectionResults[]",
          "name": "",
          "type": "tuple[]"
        }
      ],
      "stateMutability": "view",
      "type": "function"
    },
    {
      "inputs": [],
      "name": "getMaxTimestamp",
      "outputs": [
        {
          "internalType": "uint256",
          "name": "",
          "type": "uint256"
        }
      ],
      "stateMutability": "pure",
      "type": "function"
    },
    {
      "inputs": [],
      "name": "getStartedElections",
      "outputs": [
        {
          "components": [
            {
              "internalType": "uint256",
              "name": "id",
              "type": "uint256"
            },
            {
              "internalType": "string",
              "name": "name",
              "type": "string"
            },
            {
              "internalType": "string",
              "name": "description",
              "type": "string"
            },
            {
              "internalType": "address",
              "name": "admin",
              "type": "address"
            },
            {
              "internalType": "address",
              "name": "ballotAddress",
              "type": "address"
            },
            {
              "internalType": "uint256",
              "name": "startedAt",
              "type": "uint256"
            },
            {
              "internalType": "uint256",
              "name": "endedAt",
              "type": "uint256"
            },
            {
              "internalType": "bool",
              "name": "isStarted",
              "type": "bool"
            },
            {
              "internalType": "uint256",
              "name": "createdAt",
              "type": "uint256"
            },
            {
              "internalType": "uint256",
              "name": "updatedAt",
              "type": "uint256"
            }
          ],
          "internalType": "struct Voting.Election[]",
          "name": "",
          "type": "tuple[]"
        }
      ],
      "stateMutability": "view",
      "type": "function"
    },
    {
      "inputs": [
        {
          "internalType": "address",
          "name": "_voterAddress",
          "type": "address"
        }
      ],
      "name": "getVoterElections",
      "outputs": [
        {
          "components": [
            {
              "internalType": "uint256",
              "name": "id",
              "type": "uint256"
            },
            {
              "internalType": "string",
              "name": "name",
              "type": "string"
            },
            {
              "internalType": "string",
              "name": "description",
              "type": "string"
            },
            {
              "internalType": "address",
              "name": "admin",
              "type": "address"
            },
            {
              "internalType": "address",
              "name": "ballotAddress",
              "type": "address"
            },
            {
              "internalType": "uint256",
              "name": "startedAt",
              "type": "uint256"
            },
            {
              "internalType": "uint256",
              "name": "endedAt",
              "type": "uint256"
            },
            {
              "internalType": "bool",
              "name": "isStarted",
              "type": "bool"
            },
            {
              "internalType": "uint256",
              "name": "createdAt",
              "type": "uint256"
            },
            {
              "internalType": "uint256",
              "name": "updatedAt",
              "type": "uint256"
            }
          ],
          "internalType": "struct Voting.Election[]",
          "name": "",
          "type": "tuple[]"
        }
      ],
      "stateMutability": "view",
      "type": "function"
    },
    {
      "inputs": [
        {
          "internalType": "uint256",
          "name": "_electionId",
          "type": "uint256"
        }
      ],
      "name": "hasElectionEnded",
      "outputs": [
        {
          "internalType": "bool",
          "name": "",
          "type": "bool"
        }
      ],
      "stateMutability": "view",
      "type": "function"
    },
    {
      "inputs": [
        {
          "internalType": "uint256",
          "name": "_electionId",
          "type": "uint256"
        }
      ],
      "name": "hasElectionStarted",
      "outputs": [
        {
          "internalType": "bool",
          "name": "",
          "type": "bool"
        }
      ],
      "stateMutability": "view",
      "type": "function"
    },
    {
      "inputs": [
        {
          "internalType": "uint256",
          "name": "_electionId",
          "type": "uint256"
        },
        {
          "internalType": "address",
          "name": "_voterAddress",
          "type": "address"
        }
      ],
      "name": "hasVotedInElection",
      "outputs": [
        {
          "internalType": "bool",
          "name": "",
          "type": "bool"
        }
      ],
      "stateMutability": "view",
      "type": "function"
    },
    {
      "inputs": [
        {
          "internalType": "uint256",
          "name": "_electionId",
          "type": "uint256"
        },
        {
          "internalType": "uint256",
          "name": "_candidateId",
          "type": "uint256"
        }
      ],
      "name": "removeCandidateElection",
      "outputs": [],
      "stateMutability": "nonpayable",
      "type": "function"
    },
    {
      "inputs": [
        {
          "internalType": "uint256",
          "name": "_electionId",
          "type": "uint256"
        },
        {
          "internalType": "uint256",
          "name": "_startPeriod",
          "type": "uint256"
        },
        {
          "internalType": "uint256",
          "name": "_endPeriod",
          "type": "uint256"
        }
      ],
      "name": "setElectionPeriod",
      "outputs": [],
      "stateMutability": "nonpayable",
      "type": "function"
    },
    {
      "inputs": [
        {
          "internalType": "uint256",
          "name": "_electionId",
          "type": "uint256"
        }
      ],
      "name": "startElection",
      "outputs": [],
      "stateMutability": "nonpayable",
      "type": "function"
    },
    {
      "inputs": [
        {
          "internalType": "uint256",
          "name": "_electionId",
          "type": "uint256"
        },
        {
          "internalType": "uint256",
          "name": "_candidateId",
          "type": "uint256"
        },
        {
          "internalType": "string",
          "name": "_name",
          "type": "string"
        }
      ],
      "name": "updateCandidate",
      "outputs": [],
      "stateMutability": "nonpayable",
      "type": "function"
    },
    {
      "inputs": [
        {
          "internalType": "uint256",
          "name": "_electionId",
          "type": "uint256"
        },
        {
          "internalType": "uint256",
          "name": "_voterId",
          "type": "uint256"
        },
        {
          "internalType": "string",
          "name": "_name",
          "type": "string"
        },
        {
          "internalType": "string",
          "name": "_password",
          "type": "string"
        }
      ],
      "name": "updateVoter",
      "outputs": [],
      "stateMutability": "nonpayable",
      "type": "function"
    },
    {
      "inputs": [
        {
          "internalType": "uint256",
          "name": "_electionId",
          "type": "uint256"
        },
        {
          "internalType": "uint256",
          "name": "_candidateId",
          "type": "uint256"
        }
      ],
      "name": "withdrawFromElection",
      "outputs": [],
      "stateMutability": "nonpayable",
      "type": "function"
    }
  ],
  "bytecode": "0x608060405234801561001057600080fd5b506000808190555061595380620000286000396000f3fe608060405234801561001057600080fd5b50600436106101e55760003560e01c8063843fe3071161010f578063bd514d0e116100a2578063ef078a0e11610071578063ef078a0e146105a1578063f0e40435146105bd578063f70171fb146105d9578063f8c6295b14610609576101e5565b8063bd514d0e14610507578063c9f0e4ee14610525578063cadc68e914610555578063caf1db6514610585576101e5565b8063aecc6546116100de578063aecc654614610493578063b1bb6ec3146104af578063ba232428146104cd578063bd27eca0146104eb576101e5565b8063843fe307146103f75780639a74c695146104155780639d71077714610433578063a9487cec14610463576101e5565b80635905491c116101875780637393387111610156578063739338711461035f5780637ad36e841461037b5780637f4cdbba146103975780638405cb6b146103c7576101e5565b80635905491c146102d95780635bc261fa146102e35780636d32dc4b146103135780636dd278a71461032f576101e5565b80633bb76ef6116101c35780633bb76ef61461025457806341403d301461027057806342511a1e1461028c578063567f2e8e146102bd576101e5565b8063275a0738146101ea5780632c0a3f891461021a57806337e02abd14610236575b600080fd5b61020460048036038101906101ff9190613d2a565b610625565b6040516102119190613eec565b60405180910390f35b610234600480360381019061022f9190613d2a565b61080d565b005b61023e610c1f565b60405161024b91906140cc565b60405180910390f35b61026e60048036038101906102699190614223565b610f42565b005b61028a600480360381019061028591906142be565b611130565b005b6102a660048036038101906102a1919061432d565b61139a565b6040516102b4929190614369565b60405180910390f35b6102d760048036038101906102d29190613d2a565b611418565b005b6102e161166c565b005b6102fd60048036038101906102f89190614392565b611704565b60405161030a91906143e1565b60405180910390f35b61032d6004803603810190610328919061432d565b6117af565b005b6103496004803603810190610344919061432d565b6119a1565b60405161035691906143fc565b60405180910390f35b61037960048036038101906103749190614417565b611a01565b005b610395600480360381019061039091906144b6565b611c48565b005b6103b160048036038101906103ac919061432d565b611e02565b6040516103be91906143e1565b60405180910390f35b6103e160048036038101906103dc9190614555565b611e72565b6040516103ee91906140cc565b60405180910390f35b6103ff612206565b60405161040c91906143fc565b60405180910390f35b61041d61220f565b60405161042a91906143fc565b60405180910390f35b61044d6004803603810190610448919061432d565b612215565b60405161045a9190614663565b60405180910390f35b61047d60048036038101906104789190614555565b6124a4565b60405161048a91906140cc565b60405180910390f35b6104ad60048036038101906104a89190614685565b612838565b005b6104b7612a42565b6040516104c491906143fc565b60405180910390f35b6104d5612a4b565b6040516104e291906143fc565b60405180910390f35b610505600480360381019061050091906146e1565b612a58565b005b61050f612c16565b60405161051c91906149aa565b60405180910390f35b61053f600480360381019061053a919061432d565b613140565b60405161054c91906143fc565b60405180910390f35b61056f600480360381019061056a919061432d565b6131a0565b60405161057c91906143e1565b60405180910390f35b61059f600480360381019061059a91906149cc565b613206565b005b6105bb60048036038101906105b69190613d2a565b6133fe565b005b6105d760048036038101906105d29190613d2a565b61357c565b005b6105f360048036038101906105ee9190613d2a565b6137af565b6040516106009190614af4565b60405180910390f35b610623600480360381019061061e9190614b16565b613997565b005b61062d613b47565b6000548310610671576040517f08c379a000000000000000000000000000000000000000000000000000000000815260040161066890614bc6565b60405180910390fd5b600560008481526020019081526020016000205482106106c6576040517f08c379a00000000000000000000000000000000000000000000000000000000081526004016106bd90614c32565b60405180910390fd5b6004600084815260200190815260200160002060008381526020019081526020016000206040518060c00160405290816000820154815260200160018201805461070f90614c81565b80601f016020809104026020016040519081016040528092919081815260200182805461073b90614c81565b80156107885780601f1061075d57610100808354040283529160200191610788565b820191906000526020600020905b81548152906001019060200180831161076b57829003601f168201915b505050505081526020016002820160009054906101000a900473ffffffffffffffffffffffffffffffffffffffff1673ffffffffffffffffffffffffffffffffffffffff1673ffffffffffffffffffffffffffffffffffffffff1681526020016003820154815260200160048201548152602001600582015481525050905092915050565b6000548210610851576040517f08c379a000000000000000000000000000000000000000000000000000000000815260040161084890614bc6565b60405180910390fd5b61085a82611e02565b610899576040517f08c379a000000000000000000000000000000000000000000000000000000000815260040161089090614cfe565b60405180910390fd5b6108a2826131a0565b156108e2576040517f08c379a00000000000000000000000000000000000000000000000000000000081526004016108d990614d6a565b60405180910390fd5b60026000838152602001908152602001600020600082815260200190815260200160002060000154811461094b576040517f08c379a000000000000000000000000000000000000000000000000000000000815260040161094290614dd6565b60405180910390fd5b6006600083815260200190815260200160002060003373ffffffffffffffffffffffffffffffffffffffff1673ffffffffffffffffffffffffffffffffffffffff16815260200190815260200160002060009054906101000a900460ff16156109e9576040517f08c379a00000000000000000000000000000000000000000000000000000000081526004016109e090614e42565b60405180910390fd5b6000805b6005600085815260200190815260200160002054811015610a98573373ffffffffffffffffffffffffffffffffffffffff1660046000868152602001908152602001600020600083815260200190815260200160002060020160009054906101000a900473ffffffffffffffffffffffffffffffffffffffff1673ffffffffffffffffffffffffffffffffffffffff1603610a8b5760019150610a98565b80806001019150506109ed565b5080610ad9576040517f08c379a0000000000000000000000000000000000000000000000000000000008152600401610ad090614ed4565b60405180910390fd5b6002600084815260200190815260200160002060008381526020019081526020016000206003016000815480929190610b1190614f23565b919050555060016006600085815260200190815260200160002060003373ffffffffffffffffffffffffffffffffffffffff1673ffffffffffffffffffffffffffffffffffffffff16815260200190815260200160002060006101000a81548160ff0219169083151502179055506001600084815260200190815260200160002060040160009054906101000a900473ffffffffffffffffffffffffffffffffffffffff1673ffffffffffffffffffffffffffffffffffffffff163373ffffffffffffffffffffffffffffffffffffffff167f174ba19ba3c8bb5c679c87e51db79fff7c3f04bb84c1fd55b7dacb470b674aa642604051610c1291906143fc565b60405180910390a3505050565b60606000805467ffffffffffffffff811115610c3e57610c3d6140f8565b5b604051908082528060200260200182016040528015610c7757816020015b610c64613b96565b815260200190600190039081610c5c5790505b5090506000805b600054811015610f39576001600082815260200190815260200160002060070160009054906101000a900460ff168015610cbe5750610cbc816131a0565b155b15610f2c57600160008281526020019081526020016000206040518061014001604052908160008201548152602001600182018054610cfc90614c81565b80601f0160208091040260200160405190810160405280929190818152602001828054610d2890614c81565b8015610d755780601f10610d4a57610100808354040283529160200191610d75565b820191906000526020600020905b815481529060010190602001808311610d5857829003601f168201915b50505050508152602001600282018054610d8e90614c81565b80601f0160208091040260200160405190810160405280929190818152602001828054610dba90614c81565b8015610e075780601f10610ddc57610100808354040283529160200191610e07565b820191906000526020600020905b815481529060010190602001808311610dea57829003601f168201915b505050505081526020016003820160009054906101000a900473ffffffffffffffffffffffffffffffffffffffff1673ffffffffffffffffffffffffffffffffffffffff1673ffffffffffffffffffffffffffffffffffffffff1681526020016004820160009054906101000a900473ffffffffffffffffffffffffffffffffffffffff1673ffffffffffffffffffffffffffffffffffffffff1673ffffffffffffffffffffffffffffffffffffffff16815260200160058201548152602001600682015481526020016007820160009054906101000a900460ff1615151515815260200160088201548152602001600982015481525050838381518110610f1257610f11614f6b565b5b60200260200101819052508180610f2890614f23565b9250505b8080600101915050610c7e565b50819250505090565b826001600082815260200190815260200160002060030160009054906101000a900473ffffffffffffffffffffffffffffffffffffffff1673ffffffffffffffffffffffffffffffffffffffff163373ffffffffffffffffffffffffffffffffffffffff1614610fe7576040517f08c379a0000000000000000000000000000000000000000000000000000000008152600401610fde9061500c565b60405180910390fd5b600054841061102b576040517f08c379a000000000000000000000000000000000000000000000000000000000815260040161102290614bc6565b60405180910390fd5b61103484611e02565b15611074576040517f08c379a000000000000000000000000000000000000000000000000000000000815260040161106b9061509e565b60405180910390fd5b600360008581526020019081526020016000205483106110c9576040517f08c379a00000000000000000000000000000000000000000000000000000000081526004016110c090614dd6565b60405180910390fd5b8160026000868152602001908152602001600020600085815260200190815260200160002060010190816110fd919061526a565b50426002600086815260200190815260200160002060008581526020019081526020016000206005018190555050505050565b826001600082815260200190815260200160002060030160009054906101000a900473ffffffffffffffffffffffffffffffffffffffff1673ffffffffffffffffffffffffffffffffffffffff163373ffffffffffffffffffffffffffffffffffffffff16146111d5576040517f08c379a00000000000000000000000000000000000000000000000000000000081526004016111cc9061500c565b60405180910390fd5b6000548410611219576040517f08c379a000000000000000000000000000000000000000000000000000000000815260040161121090614bc6565b60405180910390fd5b61122284611e02565b15611262576040517f08c379a000000000000000000000000000000000000000000000000000000000815260040161125990615388565b60405180910390fd5b6000600360008681526020019081526020016000205490506040518060c001604052808281526020018581526020018473ffffffffffffffffffffffffffffffffffffffff1681526020016000815260200142815260200142815250600260008781526020019081526020016000206000838152602001908152602001600020600082015181600001556020820151816001019081611301919061526a565b5060408201518160020160006101000a81548173ffffffffffffffffffffffffffffffffffffffff021916908373ffffffffffffffffffffffffffffffffffffffff160217905550606082015181600301556080820151816004015560a0820151816005015590505060036000868152602001908152602001600020600081548092919061138e90614f23565b91905055505050505050565b60008060005483106113e1576040517f08c379a00000000000000000000000000000000000000000000000000000000081526004016113d890614bc6565b60405180910390fd5b6001600084815260200190815260200160002060050154600160008581526020019081526020016000206006015491509150915091565b818160026000838152602001908152602001600020600082815260200190815260200160002060020160009054906101000a900473ffffffffffffffffffffffffffffffffffffffff1673ffffffffffffffffffffffffffffffffffffffff163373ffffffffffffffffffffffffffffffffffffffff16146114cf576040517f08c379a00000000000000000000000000000000000000000000000000000000081526004016114c69061541a565b60405180910390fd5b6000548410611513576040517f08c379a000000000000000000000000000000000000000000000000000000000815260040161150a90614bc6565b60405180910390fd5b6001600085815260200190815260200160002060070160009054906101000a900460ff16611576576040517f08c379a000000000000000000000000000000000000000000000000000000000815260040161156d906154ac565b60405180910390fd5b61157f846131a0565b156115bf576040517f08c379a00000000000000000000000000000000000000000000000000000000081526004016115b69061553e565b60405180910390fd5b6002600085815260200190815260200160002060008481526020019081526020016000206000808201600090556001820160006115fc9190613c17565b6002820160006101000a81549073ffffffffffffffffffffffffffffffffffffffff021916905560038201600090556004820160009055600582016000905550506003600085815260200190815260200160002060008154809291906116619061555e565b919050555050505050565b60005b600054811015611701576001600082815260200190815260200160002060070160009054906101000a900460ff1680156116bf575060016000828152602001908152602001600020600601544210155b156116f45760006001600083815260200190815260200160002060070160006101000a81548160ff0219169083151502179055505b808060010191505061166f565b50565b600080548310611749576040517f08c379a000000000000000000000000000000000000000000000000000000000815260040161174090614bc6565b60405180910390fd5b6006600084815260200190815260200160002060008373ffffffffffffffffffffffffffffffffffffffff1673ffffffffffffffffffffffffffffffffffffffff16815260200190815260200160002060009054906101000a900460ff16905092915050565b806001600082815260200190815260200160002060030160009054906101000a900473ffffffffffffffffffffffffffffffffffffffff1673ffffffffffffffffffffffffffffffffffffffff163373ffffffffffffffffffffffffffffffffffffffff1614611854576040517f08c379a000000000000000000000000000000000000000000000000000000000815260040161184b9061500c565b60405180910390fd5b6000548210611898576040517f08c379a000000000000000000000000000000000000000000000000000000000815260040161188f90614bc6565b60405180910390fd5b426001600084815260200190815260200160002060060154116118f0576040517f08c379a00000000000000000000000000000000000000000000000000000000081526004016118e7906155d3565b60405180910390fd5b6001600083815260200190815260200160002060070160009054906101000a900460ff1615611954576040517f08c379a000000000000000000000000000000000000000000000000000000000815260040161194b9061563f565b60405180910390fd5b426001600084815260200190815260200160002060050181905550600180600084815260200190815260200160002060070160006101000a81548160ff0219169083151502179055505050565b6000805482106119e6576040517f08c379a00000000000000000000000000000000000000000000000000000000081526004016119dd90614bc6565b60405180910390fd5b60036000838152602001908152602001600020549050919050565b836001600082815260200190815260200160002060030160009054906101000a900473ffffffffffffffffffffffffffffffffffffffff1673ffffffffffffffffffffffffffffffffffffffff163373ffffffffffffffffffffffffffffffffffffffff1614611aa6576040517f08c379a0000000000000000000000000000000000000000000000000000000008152600401611a9d9061500c565b60405180910390fd5b6000548510611aea576040517f08c379a0000000000000000000000000000000000000000000000000000000008152600401611ae190614bc6565b60405180910390fd5b600060056000878152602001908152602001600020549050600560008781526020019081526020016000206000815480929190611b2690614f23565b91905055506040518060c001604052808281526020018681526020018473ffffffffffffffffffffffffffffffffffffffff16815260200185604051602001611b6f919061569b565b60405160208183030381529060405280519060200120815260200142815260200142815250600460008881526020019081526020016000206000838152602001908152602001600020600082015181600001556020820151816001019081611bd7919061526a565b5060408201518160020160006101000a81548173ffffffffffffffffffffffffffffffffffffffff021916908373ffffffffffffffffffffffffffffffffffffffff160217905550606082015181600301556080820151816004015560a08201518160050155905050505050505050565b60405180610140016040528060005481526020018581526020018481526020013373ffffffffffffffffffffffffffffffffffffffff168152602001600073ffffffffffffffffffffffffffffffffffffffff168152602001838152602001828152602001600015158152602001428152602001428152506001600080548152602001908152602001600020600082015181600001556020820151816001019081611cf3919061526a565b506040820151816002019081611d09919061526a565b5060608201518160030160006101000a81548173ffffffffffffffffffffffffffffffffffffffff021916908373ffffffffffffffffffffffffffffffffffffffff16021790555060808201518160040160006101000a81548173ffffffffffffffffffffffffffffffffffffffff021916908373ffffffffffffffffffffffffffffffffffffffff16021790555060a0820151816005015560c0820151816006015560e08201518160070160006101000a81548160ff02191690831515021790555061010082015181600801556101208201518160090155905050600080815480929190611df790614f23565b919050555050505050565b600080548210611e47576040517f08c379a0000000000000000000000000000000000000000000000000000000008152600401611e3e90614bc6565b60405180910390fd5b6001600083815260200190815260200160002060070160009054906101000a900460ff169050919050565b60606000805467ffffffffffffffff811115611e9157611e906140f8565b5b604051908082528060200260200182016040528015611eca57816020015b611eb7613b96565b815260200190600190039081611eaf5790505b5090506000805b6000548110156121fb5760005b60036000838152602001908152602001600020548110156121ed578573ffffffffffffffffffffffffffffffffffffffff1660026000848152602001908152602001600020600083815260200190815260200160002060020160009054906101000a900473ffffffffffffffffffffffffffffffffffffffff1673ffffffffffffffffffffffffffffffffffffffff16036121e057600160008381526020019081526020016000206040518061014001604052908160008201548152602001600182018054611fac90614c81565b80601f0160208091040260200160405190810160405280929190818152602001828054611fd890614c81565b80156120255780601f10611ffa57610100808354040283529160200191612025565b820191906000526020600020905b81548152906001019060200180831161200857829003601f168201915b5050505050815260200160028201805461203e90614c81565b80601f016020809104026020016040519081016040528092919081815260200182805461206a90614c81565b80156120b75780601f1061208c576101008083540402835291602001916120b7565b820191906000526020600020905b81548152906001019060200180831161209a57829003601f168201915b505050505081526020016003820160009054906101000a900473ffffffffffffffffffffffffffffffffffffffff1673ffffffffffffffffffffffffffffffffffffffff1673ffffffffffffffffffffffffffffffffffffffff1681526020016004820160009054906101000a900473ffffffffffffffffffffffffffffffffffffffff1673ffffffffffffffffffffffffffffffffffffffff1673ffffffffffffffffffffffffffffffffffffffff16815260200160058201548152602001600682015481526020016007820160009054906101000a900460ff16151515158152602001600882015481526020016009820154815250508484815181106121c2576121c1614f6b565b5b602002602001018190525082806121d890614f23565b9350506121ed565b8080600101915050611ede565b508080600101915050611ed1565b508192505050919050565b6402540be3ff81565b60005481565b61221d613b96565b6000548210612261576040517f08c379a000000000000000000000000000000000000000000000000000000000815260040161225890614bc6565b60405180910390fd5b60016000838152602001908152602001600020604051806101400160405290816000820154815260200160018201805461229a90614c81565b80601f01602080910402602001604051908101604052809291908181526020018280546122c690614c81565b80156123135780601f106122e857610100808354040283529160200191612313565b820191906000526020600020905b8154815290600101906020018083116122f657829003601f168201915b5050505050815260200160028201805461232c90614c81565b80601f016020809104026020016040519081016040528092919081815260200182805461235890614c81565b80156123a55780601f1061237a576101008083540402835291602001916123a5565b820191906000526020600020905b81548152906001019060200180831161238857829003601f168201915b505050505081526020016003820160009054906101000a900473ffffffffffffffffffffffffffffffffffffffff1673ffffffffffffffffffffffffffffffffffffffff1673ffffffffffffffffffffffffffffffffffffffff1681526020016004820160009054906101000a900473ffffffffffffffffffffffffffffffffffffffff1673ffffffffffffffffffffffffffffffffffffffff1673ffffffffffffffffffffffffffffffffffffffff16815260200160058201548152602001600682015481526020016007820160009054906101000a900460ff16151515158152602001600882015481526020016009820154815250509050919050565b60606000805467ffffffffffffffff8111156124c3576124c26140f8565b5b6040519080825280602002602001820160405280156124fc57816020015b6124e9613b96565b8152602001906001900390816124e15790505b5090506000805b60005481101561282d5760005b600560008381526020019081526020016000205481101561281f578573ffffffffffffffffffffffffffffffffffffffff1660046000848152602001908152602001600020600083815260200190815260200160002060020160009054906101000a900473ffffffffffffffffffffffffffffffffffffffff1673ffffffffffffffffffffffffffffffffffffffff1603612812576001600083815260200190815260200160002060405180610140016040529081600082015481526020016001820180546125de90614c81565b80601f016020809104026020016040519081016040528092919081815260200182805461260a90614c81565b80156126575780601f1061262c57610100808354040283529160200191612657565b820191906000526020600020905b81548152906001019060200180831161263a57829003601f168201915b5050505050815260200160028201805461267090614c81565b80601f016020809104026020016040519081016040528092919081815260200182805461269c90614c81565b80156126e95780601f106126be576101008083540402835291602001916126e9565b820191906000526020600020905b8154815290600101906020018083116126cc57829003601f168201915b505050505081526020016003820160009054906101000a900473ffffffffffffffffffffffffffffffffffffffff1673ffffffffffffffffffffffffffffffffffffffff1673ffffffffffffffffffffffffffffffffffffffff1681526020016004820160009054906101000a900473ffffffffffffffffffffffffffffffffffffffff1673ffffffffffffffffffffffffffffffffffffffff1673ffffffffffffffffffffffffffffffffffffffff16815260200160058201548152602001600682015481526020016007820160009054906101000a900460ff16151515158152602001600882015481526020016009820154815250508484815181106127f4576127f3614f6b565b5b6020026020010181905250828061280a90614f23565b93505061281f565b8080600101915050612510565b508080600101915050612503565b508192505050919050565b816001600082815260200190815260200160002060030160009054906101000a900473ffffffffffffffffffffffffffffffffffffffff1673ffffffffffffffffffffffffffffffffffffffff163373ffffffffffffffffffffffffffffffffffffffff16146128dd576040517f08c379a00000000000000000000000000000000000000000000000000000000081526004016128d49061500c565b60405180910390fd5b6000548310612921576040517f08c379a000000000000000000000000000000000000000000000000000000000815260040161291890614bc6565b60405180910390fd5b6402540be3ff60016000858152602001908152602001600020600601541461297e576040517f08c379a0000000000000000000000000000000000000000000000000000000008152600401612975906156fe565b60405180910390fd5b42600160008581526020019081526020016000206006018190555060006001600085815260200190815260200160002060070160006101000a81548160ff02191690831515021790555060016000848152602001908152602001600020600201826040516020016129f09291906157a1565b604051602081830303815290604052600160008581526020019081526020016000206002019081612a21919061526a565b50426001600085815260200190815260200160002060090181905550505050565b60008054905090565b60006402540be3ff905090565b60405180610140016040528060005481526020018381526020018281526020013373ffffffffffffffffffffffffffffffffffffffff168152602001600073ffffffffffffffffffffffffffffffffffffffff168152602001600081526020016402540be3ff8152602001600015158152602001428152602001428152506001600080548152602001908152602001600020600082015181600001556020820151816001019081612b09919061526a565b506040820151816002019081612b1f919061526a565b5060608201518160030160006101000a81548173ffffffffffffffffffffffffffffffffffffffff021916908373ffffffffffffffffffffffffffffffffffffffff16021790555060808201518160040160006101000a81548173ffffffffffffffffffffffffffffffffffffffff021916908373ffffffffffffffffffffffffffffffffffffffff16021790555060a0820151816005015560c0820151816006015560e08201518160070160006101000a81548160ff02191690831515021790555061010082015181600801556101208201518160090155905050600080815480929190612c0d90614f23565b91905055505050565b60606000805467ffffffffffffffff811115612c3557612c346140f8565b5b604051908082528060200260200182016040528015612c6e57816020015b612c5b613c57565b815260200190600190039081612c535790505b5090506000805b60005481101561313757612c88816131a0565b1561312a57600160008281526020019081526020016000206040518061014001604052908160008201548152602001600182018054612cc690614c81565b80601f0160208091040260200160405190810160405280929190818152602001828054612cf290614c81565b8015612d3f5780601f10612d1457610100808354040283529160200191612d3f565b820191906000526020600020905b815481529060010190602001808311612d2257829003601f168201915b50505050508152602001600282018054612d5890614c81565b80601f0160208091040260200160405190810160405280929190818152602001828054612d8490614c81565b8015612dd15780601f10612da657610100808354040283529160200191612dd1565b820191906000526020600020905b815481529060010190602001808311612db457829003601f168201915b505050505081526020016003820160009054906101000a900473ffffffffffffffffffffffffffffffffffffffff1673ffffffffffffffffffffffffffffffffffffffff1673ffffffffffffffffffffffffffffffffffffffff1681526020016004820160009054906101000a900473ffffffffffffffffffffffffffffffffffffffff1673ffffffffffffffffffffffffffffffffffffffff1673ffffffffffffffffffffffffffffffffffffffff16815260200160058201548152602001600682015481526020016007820160009054906101000a900460ff1615151515815260200160088201548152602001600982015481525050838381518110612edc57612edb614f6b565b5b602002602001015160000181905250600360008281526020019081526020016000205467ffffffffffffffff811115612f1857612f176140f8565b5b604051908082528060200260200182016040528015612f5157816020015b612f3e613c77565b815260200190600190039081612f365790505b50838381518110612f6557612f64614f6b565b5b60200260200101516020018190525060005b600360008381526020019081526020016000205481101561311a576002600083815260200190815260200160002060008281526020019081526020016000206040518060c001604052908160008201548152602001600182018054612fdb90614c81565b80601f016020809104026020016040519081016040528092919081815260200182805461300790614c81565b80156130545780601f1061302957610100808354040283529160200191613054565b820191906000526020600020905b81548152906001019060200180831161303757829003601f168201915b505050505081526020016002820160009054906101000a900473ffffffffffffffffffffffffffffffffffffffff1673ffffffffffffffffffffffffffffffffffffffff1673ffffffffffffffffffffffffffffffffffffffff16815260200160038201548152602001600482015481526020016005820154815250508484815181106130e4576130e3614f6b565b5b602002602001015160200151828151811061310257613101614f6b565b5b60200260200101819052508080600101915050612f77565b50818061312690614f23565b9250505b8080600101915050612c75565b50819250505090565b600080548210613185576040517f08c379a000000000000000000000000000000000000000000000000000000000815260040161317c90614bc6565b60405180910390fd5b60056000838152602001908152602001600020549050919050565b6000805482106131e5576040517f08c379a00000000000000000000000000000000000000000000000000000000081526004016131dc90614bc6565b60405180910390fd5b42600160008481526020019081526020016000206006015411159050919050565b836001600082815260200190815260200160002060030160009054906101000a900473ffffffffffffffffffffffffffffffffffffffff1673ffffffffffffffffffffffffffffffffffffffff163373ffffffffffffffffffffffffffffffffffffffff16146132ab576040517f08c379a00000000000000000000000000000000000000000000000000000000081526004016132a29061500c565b60405180910390fd5b60005485106132ef576040517f08c379a00000000000000000000000000000000000000000000000000000000081526004016132e690614bc6565b60405180910390fd5b60056000868152602001908152602001600020548410613344576040517f08c379a000000000000000000000000000000000000000000000000000000000815260040161333b90614c32565b60405180910390fd5b826004600087815260200190815260200160002060008681526020019081526020016000206001019081613378919061526a565b508160405160200161338a919061569b565b604051602081830303815290604052805190602001206004600087815260200190815260200160002060008681526020019081526020016000206003018190555042600460008781526020019081526020016000206000868152602001908152602001600020600501819055505050505050565b816001600082815260200190815260200160002060030160009054906101000a900473ffffffffffffffffffffffffffffffffffffffff1673ffffffffffffffffffffffffffffffffffffffff163373ffffffffffffffffffffffffffffffffffffffff16146134a3576040517f08c379a000000000000000000000000000000000000000000000000000000000815260040161349a9061500c565b60405180910390fd5b60005483106134e7576040517f08c379a00000000000000000000000000000000000000000000000000000000081526004016134de90614bc6565b60405180910390fd5b6001600084815260200190815260200160002060070160009054906101000a900460ff1661354a576040517f08c379a000000000000000000000000000000000000000000000000000000000815260040161354190614cfe565b60405180910390fd5b8160016000858152602001908152602001600020600601600082825461357091906157c5565b92505081905550505050565b816001600082815260200190815260200160002060030160009054906101000a900473ffffffffffffffffffffffffffffffffffffffff1673ffffffffffffffffffffffffffffffffffffffff163373ffffffffffffffffffffffffffffffffffffffff1614613621576040517f08c379a00000000000000000000000000000000000000000000000000000000081526004016136189061500c565b60405180910390fd5b6000548310613665576040517f08c379a000000000000000000000000000000000000000000000000000000000815260040161365c90614bc6565b60405180910390fd5b61366e83611e02565b156136ae576040517f08c379a00000000000000000000000000000000000000000000000000000000081526004016136a590615388565b60405180910390fd5b60036000848152602001908152602001600020548210613703576040517f08c379a00000000000000000000000000000000000000000000000000000000081526004016136fa90614dd6565b60405180910390fd5b6002600084815260200190815260200160002060008381526020019081526020016000206000808201600090556001820160006137409190613c17565b6002820160006101000a81549073ffffffffffffffffffffffffffffffffffffffff021916905560038201600090556004820160009055600582016000905550506003600084815260200190815260200160002060008154809291906137a59061555e565b9190505550505050565b6137b7613c77565b60005483106137fb576040517f08c379a00000000000000000000000000000000000000000000000000000000081526004016137f290614bc6565b60405180910390fd5b60036000848152602001908152602001600020548210613850576040517f08c379a000000000000000000000000000000000000000000000000000000000815260040161384790614dd6565b60405180910390fd5b6002600084815260200190815260200160002060008381526020019081526020016000206040518060c00160405290816000820154815260200160018201805461389990614c81565b80601f01602080910402602001604051908101604052809291908181526020018280546138c590614c81565b80156139125780601f106138e757610100808354040283529160200191613912565b820191906000526020600020905b8154815290600101906020018083116138f557829003601f168201915b505050505081526020016002820160009054906101000a900473ffffffffffffffffffffffffffffffffffffffff1673ffffffffffffffffffffffffffffffffffffffff1673ffffffffffffffffffffffffffffffffffffffff1681526020016003820154815260200160048201548152602001600582015481525050905092915050565b826001600082815260200190815260200160002060030160009054906101000a900473ffffffffffffffffffffffffffffffffffffffff1673ffffffffffffffffffffffffffffffffffffffff163373ffffffffffffffffffffffffffffffffffffffff1614613a3c576040517f08c379a0000000000000000000000000000000000000000000000000000000008152600401613a339061500c565b60405180910390fd5b6000548410613a80576040517f08c379a0000000000000000000000000000000000000000000000000000000008152600401613a7790614bc6565b60405180910390fd5b613a8984611e02565b15613ac9576040517f08c379a0000000000000000000000000000000000000000000000000000000008152600401613ac09061586b565b60405180910390fd5b818310613b0b576040517f08c379a0000000000000000000000000000000000000000000000000000000008152600401613b02906158fd565b60405180910390fd5b82600160008681526020019081526020016000206005018190555081600160008681526020019081526020016000206006018190555050505050565b6040518060c001604052806000815260200160608152602001600073ffffffffffffffffffffffffffffffffffffffff1681526020016000801916815260200160008152602001600081525090565b604051806101400160405280600081526020016060815260200160608152602001600073ffffffffffffffffffffffffffffffffffffffff168152602001600073ffffffffffffffffffffffffffffffffffffffff168152602001600081526020016000815260200160001515815260200160008152602001600081525090565b508054613c2390614c81565b6000825580601f10613c355750613c54565b601f016020900490600052602060002090810190613c539190613cc3565b5b50565b6040518060400160405280613c6a613b96565b8152602001606081525090565b6040518060c001604052806000815260200160608152602001600073ffffffffffffffffffffffffffffffffffffffff1681526020016000815260200160008152602001600081525090565b5b80821115613cdc576000816000905550600101613cc4565b5090565b6000604051905090565b600080fd5b600080fd5b6000819050919050565b613d0781613cf4565b8114613d1257600080fd5b50565b600081359050613d2481613cfe565b92915050565b60008060408385031215613d4157613d40613cea565b5b6000613d4f85828601613d15565b9250506020613d6085828601613d15565b9150509250929050565b613d7381613cf4565b82525050565b600081519050919050565b600082825260208201905092915050565b60005b83811015613db3578082015181840152602081019050613d98565b60008484015250505050565b6000601f19601f8301169050919050565b6000613ddb82613d79565b613de58185613d84565b9350613df5818560208601613d95565b613dfe81613dbf565b840191505092915050565b600073ffffffffffffffffffffffffffffffffffffffff82169050919050565b6000613e3482613e09565b9050919050565b613e4481613e29565b82525050565b6000819050919050565b613e5d81613e4a565b82525050565b600060c083016000830151613e7b6000860182613d6a565b5060208301518482036020860152613e938282613dd0565b9150506040830151613ea86040860182613e3b565b506060830151613ebb6060860182613e54565b506080830151613ece6080860182613d6a565b5060a0830151613ee160a0860182613d6a565b508091505092915050565b60006020820190508181036000830152613f068184613e63565b905092915050565b600081519050919050565b600082825260208201905092915050565b6000819050602082019050919050565b60008115159050919050565b613f4f81613f3a565b82525050565b600061014083016000830151613f6e6000860182613d6a565b5060208301518482036020860152613f868282613dd0565b91505060408301518482036040860152613fa08282613dd0565b9150506060830151613fb56060860182613e3b565b506080830151613fc86080860182613e3b565b5060a0830151613fdb60a0860182613d6a565b5060c0830151613fee60c0860182613d6a565b5060e083015161400160e0860182613f46565b50610100830151614016610100860182613d6a565b5061012083015161402b610120860182613d6a565b508091505092915050565b60006140428383613f55565b905092915050565b6000602082019050919050565b600061406282613f0e565b61406c8185613f19565b93508360208202850161407e85613f2a565b8060005b858110156140ba578484038952815161409b8582614036565b94506140a68361404a565b925060208a01995050600181019050614082565b50829750879550505050505092915050565b600060208201905081810360008301526140e68184614057565b905092915050565b600080fd5b600080fd5b7f4e487b7100000000000000000000000000000000000000000000000000000000600052604160045260246000fd5b61413082613dbf565b810181811067ffffffffffffffff8211171561414f5761414e6140f8565b5b80604052505050565b6000614162613ce0565b905061416e8282614127565b919050565b600067ffffffffffffffff82111561418e5761418d6140f8565b5b61419782613dbf565b9050602081019050919050565b82818337600083830152505050565b60006141c66141c184614173565b614158565b9050828152602081018484840111156141e2576141e16140f3565b5b6141ed8482856141a4565b509392505050565b600082601f83011261420a576142096140ee565b5b813561421a8482602086016141b3565b91505092915050565b60008060006060848603121561423c5761423b613cea565b5b600061424a86828701613d15565b935050602061425b86828701613d15565b925050604084013567ffffffffffffffff81111561427c5761427b613cef565b5b614288868287016141f5565b9150509250925092565b61429b81613e29565b81146142a657600080fd5b50565b6000813590506142b881614292565b92915050565b6000806000606084860312156142d7576142d6613cea565b5b60006142e586828701613d15565b935050602084013567ffffffffffffffff81111561430657614305613cef565b5b614312868287016141f5565b9250506040614323868287016142a9565b9150509250925092565b60006020828403121561434357614342613cea565b5b600061435184828501613d15565b91505092915050565b61436381613cf4565b82525050565b600060408201905061437e600083018561435a565b61438b602083018461435a565b9392505050565b600080604083850312156143a9576143a8613cea565b5b60006143b785828601613d15565b92505060206143c8858286016142a9565b9150509250929050565b6143db81613f3a565b82525050565b60006020820190506143f660008301846143d2565b92915050565b6000602082019050614411600083018461435a565b92915050565b6000806000806080858703121561443157614430613cea565b5b600061443f87828801613d15565b945050602085013567ffffffffffffffff8111156144605761445f613cef565b5b61446c878288016141f5565b935050604085013567ffffffffffffffff81111561448d5761448c613cef565b5b614499878288016141f5565b92505060606144aa878288016142a9565b91505092959194509250565b600080600080608085870312156144d0576144cf613cea565b5b600085013567ffffffffffffffff8111156144ee576144ed613cef565b5b6144fa878288016141f5565b945050602085013567ffffffffffffffff81111561451b5761451a613cef565b5b614527878288016141f5565b935050604061453887828801613d15565b925050606061454987828801613d15565b91505092959194509250565b60006020828403121561456b5761456a613cea565b5b6000614579848285016142a9565b91505092915050565b60006101408301600083015161459b6000860182613d6a565b50602083015184820360208601526145b38282613dd0565b915050604083015184820360408601526145cd8282613dd0565b91505060608301516145e26060860182613e3b565b5060808301516145f56080860182613e3b565b5060a083015161460860a0860182613d6a565b5060c083015161461b60c0860182613d6a565b5060e083015161462e60e0860182613f46565b50610100830151614643610100860182613d6a565b50610120830151614658610120860182613d6a565b508091505092915050565b6000602082019050818103600083015261467d8184614582565b905092915050565b6000806040838503121561469c5761469b613cea565b5b60006146aa85828601613d15565b925050602083013567ffffffffffffffff8111156146cb576146ca613cef565b5b6146d7858286016141f5565b9150509250929050565b600080604083850312156146f8576146f7613cea565b5b600083013567ffffffffffffffff81111561471657614715613cef565b5b614722858286016141f5565b925050602083013567ffffffffffffffff81111561474357614742613cef565b5b61474f858286016141f5565b9150509250929050565b600081519050919050565b600082825260208201905092915050565b6000819050602082019050919050565b600081519050919050565b600082825260208201905092915050565b6000819050602082019050919050565b600060c0830160008301516147c96000860182613d6a565b50602083015184820360208601526147e18282613dd0565b91505060408301516147f66040860182613e3b565b5060608301516148096060860182613d6a565b50608083015161481c6080860182613d6a565b5060a083015161482f60a0860182613d6a565b508091505092915050565b600061484683836147b1565b905092915050565b6000602082019050919050565b600061486682614785565b6148708185614790565b935083602082028501614882856147a1565b8060005b858110156148be578484038952815161489f858261483a565b94506148aa8361484e565b925060208a01995050600181019050614886565b50829750879550505050505092915050565b600060408301600083015184820360008601526148ed8282613f55565b91505060208301518482036020860152614907828261485b565b9150508091505092915050565b600061492083836148d0565b905092915050565b6000602082019050919050565b600061494082614759565b61494a8185614764565b93508360208202850161495c85614775565b8060005b8581101561499857848403895281516149798582614914565b945061498483614928565b925060208a01995050600181019050614960565b50829750879550505050505092915050565b600060208201905081810360008301526149c48184614935565b905092915050565b600080600080608085870312156149e6576149e5613cea565b5b60006149f487828801613d15565b9450506020614a0587828801613d15565b935050604085013567ffffffffffffffff811115614a2657614a25613cef565b5b614a32878288016141f5565b925050606085013567ffffffffffffffff811115614a5357614a52613cef565b5b614a5f878288016141f5565b91505092959194509250565b600060c083016000830151614a836000860182613d6a565b5060208301518482036020860152614a9b8282613dd0565b9150506040830151614ab06040860182613e3b565b506060830151614ac36060860182613d6a565b506080830151614ad66080860182613d6a565b5060a0830151614ae960a0860182613d6a565b508091505092915050565b60006020820190508181036000830152614b0e8184614a6b565b905092915050565b600080600060608486031215614b2f57614b2e613cea565b5b6000614b3d86828701613d15565b9350506020614b4e86828701613d15565b9250506040614b5f86828701613d15565b9150509250925092565b600082825260208201905092915050565b7f456c656374696f6e20646f6573206e6f74206578697374000000000000000000600082015250565b6000614bb0601783614b69565b9150614bbb82614b7a565b602082019050919050565b60006020820190508181036000830152614bdf81614ba3565b9050919050565b7f566f74657220646f6573206e6f74206578697374000000000000000000000000600082015250565b6000614c1c601483614b69565b9150614c2782614be6565b602082019050919050565b60006020820190508181036000830152614c4b81614c0f565b9050919050565b7f4e487b7100000000000000000000000000000000000000000000000000000000600052602260045260246000fd5b60006002820490506001821680614c9957607f821691505b602082108103614cac57614cab614c52565b5b50919050565b7f456c656374696f6e20686173206e6f7420737461727465642079657400000000600082015250565b6000614ce8601c83614b69565b9150614cf382614cb2565b602082019050919050565b60006020820190508181036000830152614d1781614cdb565b9050919050565b7f456c656374696f6e2068617320656e6465640000000000000000000000000000600082015250565b6000614d54601283614b69565b9150614d5f82614d1e565b602082019050919050565b60006020820190508181036000830152614d8381614d47565b9050919050565b7f43616e64696461746520646f6573206e6f742065786973740000000000000000600082015250565b6000614dc0601883614b69565b9150614dcb82614d8a565b602082019050919050565b60006020820190508181036000830152614def81614db3565b9050919050565b7f566f7465722068617320616c726561647920766f746564000000000000000000600082015250565b6000614e2c601783614b69565b9150614e3782614df6565b602082019050919050565b60006020820190508181036000830152614e5b81614e1f565b9050919050565b7f566f746572206973206e6f74207265676973746572656420666f72207468697360008201527f20656c656374696f6e0000000000000000000000000000000000000000000000602082015250565b6000614ebe602983614b69565b9150614ec982614e62565b604082019050919050565b60006020820190508181036000830152614eed81614eb1565b9050919050565b7f4e487b7100000000000000000000000000000000000000000000000000000000600052601160045260246000fd5b6000614f2e82613cf4565b91507fffffffffffffffffffffffffffffffffffffffffffffffffffffffffffffffff8203614f6057614f5f614ef4565b5b600182019050919050565b7f4e487b7100000000000000000000000000000000000000000000000000000000600052603260045260246000fd5b7f4f6e6c792041646d696e732063616e20706572666f726d20746869732061637460008201527f696f6e0000000000000000000000000000000000000000000000000000000000602082015250565b6000614ff6602383614b69565b915061500182614f9a565b604082019050919050565b6000602082019050818103600083015261502581614fe9565b9050919050565b7f43616e6e6f74207570646174652063616e64696461746520616674657220766f60008201527f74696e6720686173207374617274656400000000000000000000000000000000602082015250565b6000615088603083614b69565b91506150938261502c565b604082019050919050565b600060208201905081810360008301526150b78161507b565b9050919050565b60008190508160005260206000209050919050565b60006020601f8301049050919050565b600082821b905092915050565b6000600883026151207fffffffffffffffffffffffffffffffffffffffffffffffffffffffffffffffff826150e3565b61512a86836150e3565b95508019841693508086168417925050509392505050565b6000819050919050565b600061516761516261515d84613cf4565b615142565b613cf4565b9050919050565b6000819050919050565b6151818361514c565b61519561518d8261516e565b8484546150f0565b825550505050565b600090565b6151aa61519d565b6151b5818484615178565b505050565b5b818110156151d9576151ce6000826151a2565b6001810190506151bb565b5050565b601f82111561521e576151ef816150be565b6151f8846150d3565b81016020851015615207578190505b61521b615213856150d3565b8301826151ba565b50505b505050565b600082821c905092915050565b600061524160001984600802615223565b1980831691505092915050565b600061525a8383615230565b9150826002028217905092915050565b61527382613d79565b67ffffffffffffffff81111561528c5761528b6140f8565b5b6152968254614c81565b6152a18282856151dd565b600060209050601f8311600181146152d457600084156152c2578287015190505b6152cc858261524e565b865550615334565b601f1984166152e2866150be565b60005b8281101561530a578489015182556001820191506020850194506020810190506152e5565b868310156153275784890151615323601f891682615230565b8355505b6001600288020188555050505b505050505050565b7f566f74696e672068617320616c72656164792073746172746564000000000000600082015250565b6000615372601a83614b69565b915061537d8261533c565b602082019050919050565b600060208201905081810360008301526153a181615365565b9050919050565b7f4f6e6c792043616e646964617465732063616e20706572666f726d207468697360008201527f20616374696f6e00000000000000000000000000000000000000000000000000602082015250565b6000615404602783614b69565b915061540f826153a8565b604082019050919050565b60006020820190508181036000830152615433816153f7565b9050919050565b7f43616e6e6f742077697468647261772c2074686520656c656374696f6e20686160008201527f73206e6f74207374617274656400000000000000000000000000000000000000602082015250565b6000615496602d83614b69565b91506154a18261543a565b604082019050919050565b600060208201905081810360008301526154c581615489565b9050919050565b7f43616e6e6f742077697468647261772c2074686520656c656374696f6e20686160008201527f7320656e6465642e000000000000000000000000000000000000000000000000602082015250565b6000615528602883614b69565b9150615533826154cc565b604082019050919050565b600060208201905081810360008301526155578161551b565b9050919050565b600061556982613cf4565b91506000820361557c5761557b614ef4565b5b600182039050919050565b7f456c656374696f6e2068617320616c72656164792066696e69736865642e0000600082015250565b60006155bd601e83614b69565b91506155c882615587565b602082019050919050565b600060208201905081810360008301526155ec816155b0565b9050919050565b7f456c656374696f6e2068617320616c7265616479207374617274656400000000600082015250565b6000615629601c83614b69565b9150615634826155f3565b602082019050919050565b600060208201905081810360008301526156588161561c565b9050919050565b600081905092915050565b600061567582613d79565b61567f818561565f565b935061568f818560208601613d95565b80840191505092915050565b60006156a7828461566a565b915081905092915050565b7f456c656374696f6e20616c726561647920636c6f736564210000000000000000600082015250565b60006156e8601883614b69565b91506156f3826156b2565b602082019050919050565b60006020820190508181036000830152615717816156db565b9050919050565b6000815461572b81614c81565b615735818661565f565b94506001821660008114615750576001811461576557615798565b60ff1983168652811515820286019350615798565b61576e856150be565b60005b8381101561579057815481890152600182019150602081019050615771565b838801955050505b50505092915050565b60006157ad828561571e565b91506157b9828461566a565b91508190509392505050565b60006157d082613cf4565b91506157db83613cf4565b92508282019050808211156157f3576157f2614ef4565b5b92915050565b7f43616e6e6f74206368616e676520656c656374696f6e20706572696f6420616660008201527f7465722069742068617320737461727465640000000000000000000000000000602082015250565b6000615855603283614b69565b9150615860826157f9565b604082019050919050565b6000602082019050818103600083015261588481615848565b9050919050565b7f537461727420706572696f64206d757374206265206265666f726520656e642060008201527f706572696f640000000000000000000000000000000000000000000000000000602082015250565b60006158e7602683614b69565b91506158f28261588b565b604082019050919050565b60006020820190508181036000830152615916816158da565b905091905056fea2646970667358221220b7ba94d751a890a860d219c5cbef2ba2e5a400a311983da132aab32459754f0564736f6c63430008180033",
  "linkReferences": {},
  "deployedLinkReferences": {}
}